:020000040800F2
:1000000000280020C50E0008550E00085B0E0008F1
:10001000610E0008670E00086D0E00080000000069
:10002000000000000000000000000000730E000847
:100030007F0E0008000000008B0E0008970E0008DD
:100040000D0F00080D0F00080D0F00080D0F000820
:100050000D0F00080D0F00080D0F00080D0F000810
:100060000D0F00080D0F00080D0F00080D0F000800
:100070000D0F00080D0F00080D0F00080D0F0008F0
:100080000D0F00080D0F00080D0F00080D0F0008E0
:100090000D0F00080D0F00080D0F00080D0F0008D0
:1000A0000D0F00080D0F00080D0F00080D0F0008C0
:1000B000A50E00080D0F0008000000000D0F00083D
:1000C0000D0F000800000000000000000D0F0008E8
:1000D000000000000D0F00080D0F000800000000D8
:1000E0000D0F00080D0F00080D0F000800000000A4
:1000F0000000000000000000000000000000000000
:0C01000000000000000000005FF808F1A3
:10010C0010B5054C237833B9044B13B10448AFF345
:10011C0000800123237010BD3C0000200000000073
:10012C003C25000808B5034B1BB103490348AFF34A
:10013C00008008BD00000000400000203C250008A5
:10014C0080B400AF034B01221A6000BFBD4680BCD7
:10015C00704700BF5800002080B400AF034B012251
:10016C001A6000BFBD4680BC704700BF5C00002019
:10017C0080B400AF064B1B68012B04D1044B00224A
:10018C001A60012300E000231846BD4680BC70476E
:10019C005800002080B400AF064B1B68012B04D123
:1001AC00044B00221A60012300E000231846BD46D0
:1001BC0080BC70475C00002080B500AF1F4B1B68F3
:1001CC001F4A13601F4B1B681C4A13604FF40071CD
:1001DC001D4801F081F903461A461A4B1A60184B58
:1001EC001A68164B1B689A4225D1144B1A68154B8A
:1001FC001B689A421FD1154B1A68124B1B689A4206
:10020C000DD0104B1B68114A13600E4B1B68002B52
:10021C0011D1FFF795FF0E4BC8221A600BE00C4B67
:10022C001B68013B0A4A1360094B1B68002B02D167
:10023C00064B01221A6000BF80BD00BF04000020E5
:10024C000000002008000020000C01400C000020E1
:10025C002000002080B500AF1F4B1B681F4A1360A5
:10026C001F4B1B681C4A13604FF480611D4801F042
:10027C0033F903461A461A4B1A60184B1A68164B78
:10028C001B689A4225D1144B1A68154B1B689A426D
:10029C001FD1154B1A68124B1B689A420DD0104B8C
:1002AC001B68114A13600E4B1B68002B11D1FFF712
:1002BC0053FF0E4BC8221A600BE00C4B1B68013B22
:1002CC000A4A1360094B1B68002B02D1064B012212
:1002DC001A6000BF80BD00BF140000201000002079
:1002EC0018000020000C01401C00002024000020FD
:1002FC0080B500AFAB4B1B680D3B042B00F2478164
:10030C0001A252F823F000BF29030008790300086A
:10031C00FB0300088D0400080D05000801220421D0
:10032C00A14801F0F0F8012208219F4801F0EBF8F8
:10033C00012210219C4801F0E6F8012220219A4864
:10034C0001F0E1F801224021974801F0DCF801228C
:10035C008021954801F0D7F8924B0E221A60934BEE
:10036C00FA221A60924B96221A6019E1002204219B
:10037C008D4801F0C8F8012208218B4801F0C3F820
:10038C0001221021884801F0BEF801222021864864
:10039C0001F0B9F801224021834801F0B4F80022A1
:1003AC008021814801F0AFF8804B1B68013B7F4AEC
:1003BC0013607F4B1B68013B7D4A1360FFF7D8FE2F
:1003CC000346002B07D0774B09221A60794B4FF468
:1003DC007A721A60E4E0764B1B68002B00F3D9802C
:1003EC00704B0F221A60724B64221A60D1E000220B
:1003FC0004216D4801F087F8012208216A4801F0B8
:10040C0082F801221021684801F07DF80122202198
:10041C00654801F078F800224021634801F073F838
:10042C0001228021604801F06EF8604B1B68013B93
:10043C005E4A13605E4B1B68013B5D4A1360FFF71D
:10044C0097FE0346002B07D0564B0A221A60594BD5
:10045C004FF47A721A60A3E0544B1B68002B00F324
:10046C009A80534B1B68002B00F395804D4B102248
:10047C001A604E4B96221A604D4BFA221A608AE093
:10048C0001220421484801F03EF801220821464887
:10049C0001F039F800221021434801F034F8002211
:1004AC002021414801F02FF8012240213E4801F063
:1004BC002AF8012280213C4801F025F83B4B1B68AF
:1004CC00013B3A4A13603A4B1B68013B384A1360B4
:1004DC00FFF74EFE0346002B07D0324B0B221A605F
:1004EC00344B4FF47A721A605AE0304B1B68002B75
:1004FC0053DC2C4B11221A602C4B64221A604CE0FA
:10050C0001220421284800F0FEFF00220821264881
:10051C0000F0F9FF01221021234800F0F4FF002223
:10052C002021214800F0EFFF012240211E4800F05D
:10053C00EAFF012280211C4800F0E5FF1B4B1B68E1
:10054C00013B1A4A13601A4B1B68013B184A136093
:10055C00FFF70EFE0346002B07D0124B0C221A603D
:10056C00144B4FF47A721A601AE0104B1B68002B74
:10057C0015DC0F4B1B68002B11DC0A4B0E221A608A
:10058C000A4BFA221A600A4B96221A6007E000BF47
:10059C0006E000BF04E000BF02E000BF00E000BFC7
:1005AC0000BF80BD2C00002000080140600000202E
:1005BC00640000202800002080B500AF9F4B1B6812
:1005CC00093B032B00F22E8101A252F823F000BF4D
:1005DC00ED0500087F06000811070008A1070008B8
:1005EC0000220421964800F08EFF01220821944835
:1005FC0000F089FF01221021914800F084FF0122B4
:10060C0020218F4800F07FFF012240218C4800F010
:10061C007AFF002280218A4800F075FF894B1B6805
:10062C00013B884A1360874B1B68002B06DC854B0B
:10063C004FF47A721A60814B0E221A60FFF798FD04
:10064C000346002B07D07D4B0E221A607D4B4FF4D6
:10065C007A721A60EFE0FFF79DFD0346002B00F065
:10066C00E380764B0A221A60764B4FF47A721A604A
:10067C00DAE000220421724800F045FF0122082133
:10068C006F4800F040FF012210216D4800F03BFF45
:10069C00012220216A4800F036FF002240216848E0
:1006AC0000F031FF01228021654800F02CFF654BE2
:1006BC001B68013B634A1360624B1B68002B06DC12
:1006CC00604B4FF47A721A605C4B0F221A60FFF782
:1006DC004FFD0346002B07D0584B0F221A60594B85
:1006EC004FF47A721A60A6E0FFF754FD0346002B14
:1006FC0000F09C80514B0B221A60524B4FF47A72D3
:10070C001A6093E0012204214D4800F0FCFE012206
:10071C0008214B4800F0F7FE00221021484800F059
:10072C00F2FE00222021464800F0EDFE012240217D
:10073C00434800F0E8FE01228021414800F0E3FE2E
:10074C00404B1B68013B3F4A13603E4B1B68002B20
:10075C0006DC3C4B4FF47A721A60384B10221A604C
:10076C00FFF706FD0346002B07D0344B10221A600E
:10077C00344B4FF47A721A605DE0FFF70BFD0346C1
:10078C00002B55D02D4B0C221A602E4B4FF47A7245
:10079C001A604DE001220421294800F0B4FE002229
:1007AC000821274800F0AFFE01221021244800F058
:1007BC00AAFE00222021224800F0A5FE01224021A1
:1007CC001F4800F0A0FE012280211D4800F09BFE76
:1007DC001C4B1B68013B1B4A13601A4B1B68002BFC
:1007EC0006DC184B4FF47A721A60144B11221A6003
:1007FC00FFF7BEFC0346002B07D0104B11221A60EA
:10080C00104B4FF47A721A6015E0FFF7C3FC0346E5
:10081C00002B0FD0094B09221A600A4B4FF47A7245
:10082C001A6007E000BF06E000BF04E000BF02E072
:10083C0000BF00E000BF00BF80BD00BF2C00002047
:10084C00000801402800002080B500AF02210248BA
:10085C0000F071FE00BF80BD0008014080B500AF04
:10086C0000F050FB00F046F800F0CCF800F07EF8F9
:10087C001B4801F0A5FA012202211A4800F043FEA0
:10088C0001220421174800F03EFE012208211548E0
:10089C0000F039FE01221021124800F034FE012232
:1008AC002021104800F02FFE012240210D4800F0BD
:1008BC002AFE012280210B4800F025FE0022C821CF
:1008CC00094800F003F90A22C821084800F0FEF894
:1008DC000A22C821064800F0F9F800F0BDF9FCE73F
:1008EC008C0300200008014055080008FD02000898
:1008FC00C505000880B590B000AF07F11803282299
:10090C000021184601F00CFE3B1D00221A605A60B3
:10091C009A60DA601A610223BB610123BB62102367
:10092C00FB6200237B6307F11803184600F01CFEE2
:10093C000346002B01D000F0C4F80F237B6000238A
:10094C00BB600023FB6000233B6100237B613B1DEC
:10095C000021184601F088F80346002B01D000F066
:10096C00B0F800BF4037BD4680BD000080B586B0F2
:10097C0000AF07F1080300221A605A609A60DA602F
:10098C003B4600221A605A601D4B4FF080421A60A1
:10099C001B4B41F63F725A60194B00229A60184B60
:1009AC000922DA60164B00221A61154B00229A615B
:1009BC00134801F0B5F90346002B01D000F081F883
:1009CC004FF48053BB6007F1080319460C4801F043
:1009DC0033FB0346002B01D000F073F800233B607F
:1009EC0000237B603B461946054801F00BFD03468E
:1009FC00002B01D000F065F800BF1837BD4680BD54
:100A0C008C03002080B586B000AF07F108030022EC
:100A1C001A605A609A60DA601D4B9B691C4A43F05D
:100A2C00040393611A4B9B6903F004037B607B689E
:100A3C00174B9B69164A43F008039361144B9B694F
:100A4C0003F008033B603B680022FE21114800F0D4
:100A5C005AFDFE23BB600123FB6000233B61022394
:100A6C007B6107F1080319460A4800F0BBFB4FF401
:100A7C00C063BB600023FB6001233B6107F10803EB
:100A8C001946054800F0AEFB00BF1837BD4680BDC7
:100A9C000010024000080140000C014080B582B0FB
:100AAC0000AF78607B681B68B3F1804F05D100F014
:100ABC0065F8FFF781FBFFF7CDFB00BF0837BD469C
:100ACC0080BD80B400AF72B600BFFEE780B487B0C3
:100ADC0000AFF860B9607A600023FB7502E0FB7D23
:100AEC000133FB75FA7D224913469B0013449B008E
:100AFC000B441B68002B02D0FB7D272BEFD9FB7D11
:100B0C00282B04D11B4B01221A7028232BE0FA7DD1
:100B1C00174913469B0013449B000B44FA681A6058
:100B2C00FA7D134913469B0013449B000B4404337A
:100B3C00BA681A60FA7D7B680F49A1FB0313D908C8
:100B4C000B4813469B0013449B0003440833196065
:100B5C00FA7D074913469B0013449B000B440C334E
:100B6C0000221A70FB7D18461C37BD4680BC7047AE
:100B7C006C00002068000020CDCCCCCC80B483B0BD
:100B8C0000AF0023FB715CE0FA79324913469B00FD
:100B9C0013449B000B441B68002B4FD0FA792D4952
:100BAC0013469B0013449B000B4404331B68002B1F
:100BBC0032D1FA79274913469B0013449B000B440E
:100BCC000C331B78FA790133D8B2224913469B00B7
:100BDC0013449B000B440C3302461A70FA791D49DE
:100BEC0013469B0013449B000B4408331B68002BDB
:100BFC0024D0F979FA7917480B469B000B449B00DB
:100C0C00034408331968134813469B0013449B0094
:100C1C0003440433196011E0FA790E4913469B0022
:100C2C0013449B000B4404331B68591E094813469C
:100C3C009B0013449B00034404331960FB7901337C
:100C4C00FB71FB79272B9FD900BF00BF0C37BD462A
:100C5C0080BC70476C00002080B582B000AF0023D0
:100C6C00FB7139E0FA79224913469B0013449B002F
:100C7C000B440C331B78002B2BD0FA791C491346F0
:100C8C009B0013449B000B441B689847FA79184946
:100C9C0013469B0013449B000B440C331B78013B05
:100CAC00D8B2134913469B0013449B000B440C33DE
:100CBC0002461A70FA790E4913469B0013449B00A6
:100CCC000B4408331B68002B03D1FB79184600F04A
:100CDC0011F8FB790133FB71FB79272BC2D900F09A
:100CEC0057F800F04FF800BF0837BD4680BD00BF75
:100CFC006C00002080B485B000AF78601F497A6822
:100D0C0013469B0013449B000B441B68002B05D11E
:100D1C001B4B08221A700923FB7301E00A23FB7397
:100D2C0016497A6813469B0013449B000B4400221F
:100D3C001A6012497A6813469B0013449B000B44BB
:100D4C00043300221A600D497A6813469B00134441
:100D5C009B000B44083300221A6008497A6813463A
:100D6C009B0013449B000B440C3300221A70FB7B3A
:100D7C0018461437BD4680BC704700BF6C0000207D
:100D8C006800002080B400AF00BFBD4680BC704737
:100D9C0080B400AF00BFBD4680BC704780B485B046
:100DAC0000AF154B9B69144A43F001039361124B3E
:100DBC009B6903F00103BB60BB680F4BDB690E4AF8
:100DCC0043F08053D3610C4BDB6903F080537B60A1
:100DDC007B680A4B5B68FB60FB6823F0E063FB609D
:100DEC00FB6843F08063FB60044AFB68536000BF00
:100DFC001437BD4680BC7047001002400000014013
:100E0C0080B584B000AF78607B681B68B3F1804F0D
:100E1C0013D10C4BDB690B4A43F00103D361094B33
:100E2C00DB6903F00103FB60FB68002200211C203E
:100E3C0000F0A1F91C2000F0BAF900BF1037BD4634
:100E4C0080BD00BF0010024080B400AFFEE780B44C
:100E5C0000AFFEE780B400AFFEE780B400AFFEE762
:100E6C0080B400AFFEE780B400AF00BFBD4680BCCD
:100E7C00704780B400AF00BFBD4680BC704780B4E3
:100E8C0000AF00BFBD4680BC704780B500AF00F01E
:100E9C007FF800BF80BD000080B500AF024800F0B5
:100EAC00DBFF00BF80BD00BF8C03002080B400AF0F
:100EBC0000BFBD4680BC7047FFF7F8FF0B480C49DC
:100ECC000C4A002302E0D458C4500433C4188C429A
:100EDC00F9D3094A094C002301E013600432A24201
:100EEC00FBD301F0F9FAFFF7B9FC704700000020C2
:100EFC003C000020802500083C000020D803002086
:100F0C00FEE7000080B500AF084B1B68074A43F0B2
:100F1C0010031360032000F023F90F2000F008F8F1
:100F2C00FFF73CFF0023184680BD00BF00200240A5
:100F3C0080B582B000AF7860124B1A68124B1B78E8
:100F4C0019464FF47A73B3FBF1F3B2FBF3F3184683
:100F5C0000F03BF90346002B01D001230EE07B6827
:100F6C000F2B0AD8002279684FF0FF3000F003F9FC
:100F7C00064A7B681360002300E0012318460837FB
:100F8C00BD4680BD30000020380000203400002019
:100F9C0080B400AF054B1B781A46054B1B681344F5
:100FAC00034A136000BFBD4680BC70473800002068
:100FBC00D403002080B400AF024B1B681846BD461A
:100FCC0080BC7047D403002080B485B000AF78603B
:100FDC007B6803F00703FB600C4BDB68BB60BA68F3
:100FEC004FF6FF031340BB60FB681A02BB68134348
:100FFC0043F0BF6343F40033BB60044ABB68D36067
:10100C0000BF1437BD4680BC704700BF00ED00E048
:10101C0080B400AF044BDB681B0A03F007031846CF
:10102C00BD4680BC704700BF00ED00E080B483B0CB
:10103C0000AF0346FB7197F90730002B0BDBFB79F4
:10104C0003F01F02064997F907305B09012000FAEB
:10105C0002F241F8232000BF0C37BD4680BC70471C
:10106C0000E100E080B483B000AF03463960FB714F
:10107C0097F90730002B0ADB3B68DAB20C4997F979
:10108C0007301201D2B20B4483F800230AE03B680C
:10109C00DAB20849FB7903F00F03043B1201D2B218
:1010AC000B441A7600BF0C37BD4680BC704700BF9E
:1010BC0000E100E000ED00E080B489B000AFF86022
:1010CC00B9607A60FB6803F00703FB61FB69C3F14D
:1010DC000703042B28BF0423BB61FB690433062BD5
:1010EC0002D9FB69033B00E000237B614FF0FF3228
:1010FC00BB6902FA03F3DA43BB681A407B699A4076
:10110C004FF0FF317B6901FA03F3D9437B680B4045
:10111C00134318462437BD4680BC704780B582B057
:10112C0000AF78607B68013BB3F1807F01D3012372
:10113C000FE00A4A7B68013B53600F214FF0FF30F0
:10114C00FFF790FF054B00229A60044B07221A60B0
:10115C00002318460837BD4680BD00BF10E000E0F4
:10116C0080B582B000AF78607868FFF72DFF00BFC4
:10117C000837BD4680BD80B586B000AF0346B96068
:10118C007A60FB7300237B61FFF742FF78617A681A
:10119C00B9687869FFF790FF024697F90F3011464E
:1011AC001846FFF75FFF00BF1837BD4680BD80B5FE
:1011BC0082B000AF0346FB7197F907301846FFF772
:1011CC0035FF00BF0837BD4680BD80B582B000AF8B
:1011DC0078607868FFF7A2FF034618460837BD46CB
:1011EC0080BD000080B48BB000AF78603960002304
:1011FC007B6200233B6248E101227B6A02FA03F323
:10120C00FB613B681B68FA691340BB61BA69FB69F7
:10121C009A4240F037813B685B68A34A93425ED0A8
:10122C00A14A934275D8A14A934258D09F4A9342FF
:10123C006FD89F4A934252D09D4A934269D89D4A97
:10124C0093424CD09B4A934263D89B4A934246D0DC
:10125C00994A93425DD8122B2AD8122B59D801A245
:10126C0052F823F0EB120008C5120008D712000840
:10127C00191300081F1300081F1300081F13000880
:10128C001F1300081F1300081F1300081F1300086A
:10129C001F1300081F1300081F1300081F1300085A
:1012AC001F1300081F130008CD120008E1120008DC
:1012BC00824A934213D02CE03B68DB683B6229E006
:1012CC003B68DB6804333B6224E03B68DB68083333
:1012DC003B621FE03B68DB680C333B621AE03B6807
:1012EC009B68002B02D104233B6213E03B689B6894
:1012FC00012B05D108233B627B68FA691A6109E06E
:10130C0008233B627B68FA695A6103E000233B6265
:10131C0000E000BFBB69FF2B01D87B6801E07B6854
:10132C0004337B61BB69FF2B02D87B6A9B0002E014
:10133C007B6A083B9B003B617B691A680F213B6908
:10134C0001FA03F3DB431A40396A3B6901FA03F3F0
:10135C001A437B691A603B685B6803F08053002B6F
:10136C0000F09080564B9B69554A43F00103936102
:10137C00534B9B6903F00103BB60BB68514A7B6A0A
:10138C009B08023352F82330FB607B6A03F00303A3
:10139C009B000F2202FA03F3DB43FA681340FB6055
:1013AC007B68494A93420DD07B68484A934207D0E8
:1013BC007B68474A934201D1022304E0032302E0F5
:1013CC00012300E000237A6A02F0030292009340AA
:1013DC00FA681343FB603B497B6A9B080233FA684B
:1013EC0041F823203B685B6803F48013002B06D084
:1013FC00384B9A683749BB6913438B6006E0354B11
:10140C009A68BB69DB43334913408B603B685B686C
:10141C0003F40013002B06D02E4BDA682D49BB6960
:10142C001343CB6006E02B4BDA68BB69DB432949DD
:10143C001340CB603B685B6803F40033002B06D091
:10144C00244B5A682349BB6913434B6006E0214B7C
:10145C005A68BB69DB431F4913404B603B685B68B0
:10146C0003F48033002B06D01A4B1A681949BB6958
:10147C0013430B6006E0174B1A68BB69DB43154935
:10148C0013400B607B6A01337B623B681A687B6A92
:10149C0022FA03F3002B7FF4AFAE00BF00BF2C3752
:1014AC00BD4680BC704700BF0000321000003110F8
:1014BC00000022100000211000001210000011107A
:1014CC00001002400000014000080140000C0140E7
:1014DC00001001400004014080B485B000AF78607A
:1014EC000B467B807B689A687B881340002B02D06C
:1014FC000123FB7301E00023FB73FB7B18461437BD
:10150C00BD4680BC704780B483B000AF78600B469A
:10151C007B8013467B707B78002B03D07A887B68AA
:10152C001A6103E07B881A047B681A6100BF0C37D0
:10153C00BD4680BC704780B485B000AF78600B4668
:10154C007B807B68DB68FB607A88FB6813401A043D
:10155C00FB68D9437B880B401A437B681A6100BF38
:10156C001437BD4680BC704780B586B000AF78603C
:10157C007B68002B01D101236CE27B681B6803F0B4
:10158C000103002B00F08780924B5B6803F00C0387
:10159C00042B0CD08F4B5B6803F00C03082B12D17F
:1015AC008C4B5B6803F48033B3F5803F0BD1894BD4
:1015BC001B6803F40033002B6CD07B685B68002B3A
:1015CC0068D1012346E27B685B68B3F5803F06D1A6
:1015DC00804B1B687F4A43F4803313602EE07B689A
:1015EC005B68002B0CD17B4B1B687A4A23F480334D
:1015FC001360784B1B68774A23F4802313601DE03B
:10160C007B685B68B3F5A02F0CD1724B1B68714AD9
:10161C0043F4802313606F4B1B686E4A43F4803392
:10162C0013600BE06B4B1B686A4A23F48033136026
:10163C00684B1B68674A23F4802313607B685B68E4
:10164C00002B13D0FFF7B6FC386108E0FFF7B2FCB3
:10165C0002463B69D31A642B01D90323FAE15D4B93
:10166C001B6803F40033002BF0D014E0FFF7A2FC4E
:10167C00386108E0FFF79EFC02463B69D31A642BE5
:10168C0001D90323E6E1534B1B6803F40033002B11
:10169C00F0D100E000BF7B681B6803F00203002B55
:1016AC0063D04C4B5B6803F00C03002B0BD0494B05
:1016BC005B6803F00C03082B1CD1464B5B6803F4EE
:1016CC008033002B16D1434B1B6803F00203002B15
:1016DC0005D07B681B69012B01D00123BAE13D4B7E
:1016EC001B6823F0F8027B685B69DB003949134304
:1016FC000B603AE07B681B69002B20D0364B012233
:10170C001A60FFF757FC386108E0FFF753FC0246FC
:10171C003B69D31A022B01D903239BE12D4B1B6888
:10172C0003F00203002BF0D02A4B1B6823F0F802C5
:10173C007B685B69DB00274913430B6015E0264B84
:10174C0000221A60FFF736FC386108E0FFF732FC24
:10175C0002463B69D31A022B01D903237AE11D4BB4
:10176C001B6803F00203002BF0D17B681B6803F0AD
:10177C000803002B3AD07B689B69002B19D0174BC0
:10178C0001221A60FFF716FC386108E0FFF712FC23
:10179C0002463B69D31A022B01D903235AE10D4BA4
:1017AC005B6A03F00203002BF0D0012000F09AFAE0
:1017BC001CE00A4B00221A60FFF7FCFB38610FE0BB
:1017CC00FFF7F8FB02463B69D31A022B08D9032317
:1017DC0040E100BF0010024000004242800442423F
:1017EC009E4B5B6A03F00203002BE9D17B681B68FC
:1017FC0003F00403002B00F0A6800023FB75974B2D
:10180C00DB6903F08053002B0DD1944BDB69934AB9
:10181C0043F08053D361914BDB6903F08053BB6081
:10182C00BB680123FB758E4B1B6803F48073002B84
:10183C0018D18B4B1B688A4A43F480731360FFF7F3
:10184C00B9FB386108E0FFF7B5FB02463B69D31AD8
:10185C00642B01D90323FDE0814B1B6803F48073D7
:10186C00002BF0D07B68DB68012B06D17B4B1B6A0D
:10187C007A4A43F0010313622DE07B68DB68002B8E
:10188C000CD1764B1B6A754A23F001031362734B20
:10189C001B6A724A23F0040313621CE07B68DB684A
:1018AC00052B0CD16D4B1B6A6C4A43F0040313627D
:1018BC006A4B1B6A694A43F0010313620BE0674BE6
:1018CC001B6A664A23F001031362644B1B6A634A6A
:1018DC0023F0040313627B68DB68002B15D0FFF741
:1018EC0069FB38610AE0FFF765FB02463B69D31AD6
:1018FC0041F28832934201D90323ABE0574B1B6A68
:10190C0003F00203002BEED014E0FFF753FB386119
:10191C000AE0FFF74FFB02463B69D31A41F28832CB
:10192C00934201D9032395E04C4B1B6A03F002034D
:10193C00002BEED1FB7D012B05D1484BDB69474ACF
:10194C0023F08053D3617B68DB69002B00F081802E
:10195C00424B5B6803F00C03082B61D07B68DB699E
:10196C00022B46D13F4B00221A60FFF723FB386154
:10197C0008E0FFF71FFB02463B69D31A022B01D983
:10198C00032367E0354B1B6803F00073002BF0D189
:10199C007B681B6AB3F5803F08D1304B5B6823F43E
:1019AC0000327B689B682D4913434B602B4B5B6863
:1019BC0023F474127B68196A7B685B6A0B432749B2
:1019CC0013434B60274B01221A60FFF7F3FA38617F
:1019DC0008E0FFF7EFFA02463B69D31A022B01D954
:1019EC00032337E01D4B1B6803F00073002BF0D072
:1019FC002FE01C4B00221A60FFF7DCFA386108E07C
:101A0C00FFF7D8FA02463B69D31A022B01D90323FC
:101A1C0020E0124B1B6803F00073002BF0D118E090
:101A2C007B68DB69012B01D1012313E00B4B5B6855
:101A3C00FB60FB6803F480327B681B6A9A4206D118
:101A4C00FB6803F470127B685B6A9A4201D0012335
:101A5C0000E0002318461837BD4680BD0010024038
:101A6C00007000406000424280B584B000AF7860E6
:101A7C0039607B68002B01D10123D0E06A4B1B68D5
:101A8C0003F007033A689A4210D9674B1B6823F09E
:101A9C00070265493B6813430B60634B1B6803F0FB
:101AAC0007033A689A4201D00123B8E07B681B68AF
:101ABC0003F00203002B20D07B681B6803F00403A7
:101ACC00002B05D0594B5B68584A43F4E0635360D4
:101ADC007B681B6803F00803002B05D0534B5B6835
:101AEC00524A43F460535360504B5B6823F0F0024E
:101AFC007B689B684D4913434B607B681B6803F004
:101B0C000103002B40D07B685B68012B07D1474B4E
:101B1C001B6803F40033002B15D101237FE07B6895
:101B2C005B68022B07D1414B1B6803F00073002B41
:101B3C0009D1012373E03D4B1B6803F00203002B1A
:101B4C0001D101236BE0394B5B6823F003027B6806
:101B5C005B68364913434B60FFF72CFAF8600AE0D8
:101B6C00FFF728FA0246FB68D31A41F288329342F7
:101B7C0001D9032353E02D4B5B6803F00C027B6807
:101B8C005B689B009A42EBD1274B1B6803F0070361
:101B9C003A689A4210D2244B1B6823F00702224960
:101BAC003B6813430B60204B1B6803F007033A6838
:101BBC009A4201D0012332E07B681B6803F00403D6
:101BCC00002B08D0194B5B6823F4E0627B68DB6860
:101BDC00164913434B607B681B6803F00803002B0A
:101BEC0009D0124B5B6823F460527B681B69DB00E5
:101BFC000E4913434B6000F021F802460B4B5B6817
:101C0C001B0903F00F030A49CB5C22FA03F3094AC0
:101C1C001360094B1B681846FFF78AF90023184616
:101C2C001037BD4680BD00BF0020024000100240AE
:101C3C0054250008300000203400002080B487B008
:101C4C0000AF0023FB600023BB6000237B610023FB
:101C5C007B6000233B611E4B5B68FB60FB6803F001
:101C6C000C03042B02D0082B03D027E0194B3B614B
:101C7C0027E0FB689B0C03F00F03174AD35C7B60D7
:101C8C00FB6803F48033002B10D0114B5B685B0CAA
:101C9C0003F00103114AD35CBB607B680D4A02FB65
:101CAC0003F2BB68B2FBF3F37B6104E07B680C4A84
:101CBC0002FB03F37B617B693B6102E0054B3B61FB
:101CCC0000BF3B6918461C37BD4680BC704700BF3F
:101CDC000010024000127A006425000874250008E8
:101CEC0000093D0080B485B000AF78600A4B1B68DA
:101CFC000A4AA2FB03235B0A7A6802FB03F3FB602C
:101D0C0000BFFB685A1EFA60002BF9D100BF00BF60
:101D1C001437BD4680BC704730000020D34D621094
:101D2C0080B582B000AF78607B68002B01D10123B5
:101D3C0041E07B6893F83D30DBB2002B06D17B6829
:101D4C00002283F83C207868FFF75AF87B6802225F
:101D5C0083F83D207B681A687B680433194610466B
:101D6C0000F056FA7B68012283F846207B6801223A
:101D7C0083F83E207B68012283F83F207B68012298
:101D8C0083F840207B68012283F841207B68012284
:101D9C0083F842207B68012283F843207B68012270
:101DAC0083F844207B68012283F845207B6801225C
:101DBC0083F83D20002318460837BD4680BD00003F
:101DCC0080B485B000AF78607B6893F83D30DBB2AF
:101DDC00012B01D0012335E07B68022283F83D20E2
:101DEC007B681B68DA687B681B6842F00102DA606A
:101DFC007B681B68164A934209D07B681B68B3F159
:101E0C00804F04D07B681B68124A934211D17B68C7
:101E1C001B689B6803F00703FB60FB68062B10D064
:101E2C007B681B681A687B681B6842F001021A60A9
:101E3C0007E07B681B681A687B681B6842F001022C
:101E4C001A60002318461437BD4680BC704700BF8B
:101E5C00002C01400004004080B584B000AF7860D5
:101E6C007B681B68DB68FB607B681B681B69BB605D
:101E7C00BB6803F00203002B20D0FB6803F00203C5
:101E8C00002B1BD07B681B686FF002021A617B6809
:101E9C0001221A777B681B689B6903F00303002BF4
:101EAC0003D0786800F098F905E0786800F08BF9B9
:101EBC00786800F09AF97B6800221A77BB6803F007
:101ECC000403002B20D0FB6803F00403002B1BD071
:101EDC007B681B686FF004021A617B6802221A7718
:101EEC007B681B689B6903F44073002B03D07868F4
:101EFC0000F072F905E0786800F065F9786800F098
:101F0C0074F97B6800221A77BB6803F00803002B76
:101F1C0020D0FB6803F00803002B1BD07B681B68E8
:101F2C006FF008021A617B6804221A777B681B68C1
:101F3C00DB6903F00303002B03D0786800F04CF945
:101F4C0005E0786800F03FF9786800F04EF97B689E
:101F5C0000221A77BB6803F01003002B20D0FB681B
:101F6C0003F01003002B1BD07B681B686FF0100272
:101F7C001A617B6808221A777B681B68DB6903F49B
:101F8C004073002B03D0786800F026F905E07868E0
:101F9C0000F019F9786800F028F97B6800221A77AC
:101FAC00BB6803F00103002B0CD0FB6803F00103AA
:101FBC00002B07D07B681B686FF001021A617868F0
:101FCC00FEF76CFDBB6803F08003002B0CD0FB68A4
:101FDC0003F08003002B07D07B681B686FF0800236
:101FEC001A61786800F06FFABB6803F04003002BAD
:101FFC000CD0FB6803F04003002B07D07B681B68F8
:10200C006FF040021A61786800F0F8F8BB6803F0D2
:10201C002003002B0CD0FB6803F02003002B07D00F
:10202C007B681B686FF020021A61786800F042FA36
:10203C0000BF1037BD4680BD80B584B000AF78605E
:10204C0039600023FB737B6893F83C30012B01D182
:10205C000223B4E07B68012283F83C207B680222D7
:10206C0083F83D207B681B689B68BB60BB6823F0D2
:10207C007703BB60BB6823F47F43BB607B681B6842
:10208C00BA689A603B681B68B3F5005F3ED0B3F545
:10209C00005F00F28780B3F5805F00F08680B3F5B7
:1020AC00805F7FD8702B1AD0702B7BD8602B50D0D0
:1020BC00602B77D8502B3CD0502B73D8402B58D05A
:1020CC00402B6FD8302B64D0302B6BD8202B60D0AA
:1020DC00202B67D8002B5CD0102B5AD062E07B6889
:1020EC0018683B6899683B685A683B68DB6800F085
:1020FC006AF97B681B689B68BB60BB6843F077031D
:10210C00BB607B681B68BA689A604FE07B68186894
:10211C003B6899683B685A683B68DB6800F053F988
:10212C007B681B689A687B681B6842F480429A60E3
:10213C003CE07B6818683B6859683B68DB681A466A
:10214C0000F0CAF87B681B685021184600F021F992
:10215C002CE07B6818683B6859683B68DB681A465A
:10216C0000F0E8F87B681B686021184600F011F954
:10217C001CE07B6818683B6859683B68DB681A464A
:10218C0000F0AAF87B681B684021184600F001F9A2
:10219C000CE07B681A683B681B681946104600F017
:1021AC00F8F803E00123FB7300E000BF7B68012219
:1021BC0083F83D207B68002283F83C20FB7B18468B
:1021CC001037BD4680BD80B483B000AF786000BFCF
:1021DC000C37BD4680BC704780B483B000AF7860CC
:1021EC0000BF0C37BD4680BC704780B483B000AFD5
:1021FC00786000BF0C37BD4680BC704780B483B09C
:10220C0000AF786000BF0C37BD4680BC7047000043
:10221C0080B485B000AF786039607B681B68FB6068
:10222C007B682B4A934207D07B68B3F1804F03D075
:10223C007B68284A934208D1FB6823F07003FB604B
:10224C003B685B68FA681343FB607B68204A9342E7
:10225C0007D07B68B3F1804F03D07B681D4A934253
:10226C0008D1FB6823F44073FB603B68DB68FA68B9
:10227C001343FB60FB6823F080023B685B691343EC
:10228C00FB607B68FA681A603B689A687B68DA6264
:10229C003B681A687B689A627B680D4A934203D14B
:1022AC003B681A697B681A637B6801225A617B68F8
:1022BC001B6903F00103002B05D07B681B6923F01D
:1022CC0001027B681A6100BF1437BD4680BC7047A1
:1022DC00002C01400004004080B487B000AFF860CF
:1022EC00B9607A60FB681B6A7B61FB681B6A23F030
:1022FC000102FB681A62FB689B693B613B6923F036
:10230C00F0033B617B681B013A6913433B617B69BA
:10231C0023F00A037B617A69BB6813437B61FB681A
:10232C003A699A61FB687A691A6200BF1C37BD462C
:10233C0080BC704780B487B000AFF860B9607A6039
:10234C00FB681B6A7B61FB681B6A23F01002FB684D
:10235C001A62FB689B693B613B6923F470433B61E8
:10236C007B681B033A6913433B617B6923F0A00331
:10237C007B61BB681B017A6913437B61FB683A691B
:10238C009A61FB687A691A6200BF1C37BD4680BC33
:10239C00704780B485B000AF786039607B689B680B
:1023AC00FB60FB6823F07003FB603A68FB68134327
:1023BC0043F00703FB607B68FA689A6000BF143730
:1023CC00BD4680BC704780B487B000AFF860B96080
:1023DC007A603B60FB689B687B617B6923F47F437D
:1023EC007B613B681A027B681A43BB6813437A69AA
:1023FC0013437B61FB687A699A6000BF1C37BD464A
:10240C0080BC704780B485B000AF786039607B6861
:10241C0093F83C30012B01D1022341E07B6801226F
:10242C0083F83C207B68022283F83D207B681B6884
:10243C005B68FB607B681B689B68BB60FB6823F078
:10244C007003FB603B681B68FA681343FB607B6896
:10245C001B68FA685A607B681B68144A934209D05F
:10246C007B681B68B3F1804F04D07B681B68104AF3
:10247C0093420CD1BB6823F08003BB603B685B6864
:10248C00BA681343BB607B681B68BA689A607B6848
:10249C00012283F83D207B68002283F83C20002336
:1024AC0018461437BD4680BC704700BF002C014055
:1024BC000004004080B483B000AF786000BF0C37DC
:1024CC00BD4680BC704780B483B000AF786000BF5D
:1024DC000C37BD4680BC704770B500260C4D0D4CBA
:1024EC00641BA410A64209D100F022F800260A4D64
:1024FC000A4C641BA410A64205D170BD55F8043BD0
:10250C0098470136EEE755F8043B98470136F2E759
:10251C007825000878250008782500087C25000817
:10252C0003460244934200D1704703F8011BF9E7BC
:10253C00F8B500BFF8BC08BC9E467047F8B500BFA4
:08254C00F8BC08BC9E46704774
:10255400000000000000000001020304060708094F
:1025640002030405060708090A0B0C0D0E0F1010D0
:042574000102000060
:042578003101000825
:04257C000D01000845
:102580000100000001000000010000000100000047
:102590000100000001000000010000000100000037
:1025A000C8000000C8000000E80300000D000000A3
:0C25B00000127A00100000000100000082
:0400000508000EC51C
:00000001FF
