:020000040800F2
:1000000000280020A5190008551800085B180008F2
:1000100061180008671800086D180008000000004B
:10002000000000000000000000000000731800083D
:100030007F180008000000008B18000897180008BF
:10004000ED190008ED190008ED190008ED19000878
:10005000ED190008ED190008ED190008ED19000868
:10006000ED190008ED190008ED190008ED19000858
:10007000ED190008ED190008ED190008ED19000848
:10008000ED190008ED190008ED190008ED19000838
:10009000ED190008ED190008ED190008ED19000828
:1000A000ED190008ED190008ED190008ED19000818
:1000B000A5180008ED19000800000000ED1900085F
:1000C000ED1900080000000000000000ED19000814
:1000D00000000000ED190008ED1900080000000004
:1000E000ED190008ED190008ED19000800000000E6
:1000F0000000000000000000000000000000000000
:0C01000000000000000000005FF808F1A3
:10010C0010B5054C237833B9044B13B10448AFF345
:10011C0000800123237010BDCC00002000000000E3
:10012C00D031000808B5034B1BB103490348AFF3AA
:10013C00008008BD00000000D0000020D031000875
:10014C0080B400AF034B01221A6000BFBD4680BCD7
:10015C00704700BFE800002080B400AF034B0122C1
:10016C001A6000BFBD4680BC704700BFEC00002089
:10017C0080B400AF034B01221A6000BFBD4680BCA7
:10018C00704700BFF000002080B400AF064B1B6826
:10019C00012B04D1044B00221A60012300E0002340
:1001AC001846BD4680BC7047E800002080B500AF03
:1001BC001F4B1B681F4A13601F4B1B681C4A1360A4
:1001CC004FF400711D4801F0F7FE03461A461A4B16
:1001DC001A60184B1A68164B1B689A4225D1144B9F
:1001EC001A68154B1B689A421FD1154B1A68124B93
:1001FC001B689A420DD0104B1B68114A13600E4BB2
:10020C001B68002B11D1FFF79BFF0E4BC8221A6005
:10021C000BE00C4B1B68013B0A4A1360094B1B6833
:10022C00002B02D1064B01221A6000BF80BD00BF1B
:10023C00040000200000002008000020000C0140F9
:10024C000C0000203000002080B500AF1F4B1B6855
:10025C001F4A13601F4B1B681C4A13604FF48061CC
:10026C001D4801F0A9FE03461A461A4B1A60184B9A
:10027C001A68164B1B689A4225D1144B1A68154BF9
:10028C001B689A421FD1154B1A68124B1B689A4275
:10029C000DD0104B1B68114A13600E4B1B68002BC2
:1002AC0011D1FFF759FF0E4BC8221A600BE00C4B13
:1002BC001B68013B0A4A1360094B1B68002B02D1D7
:1002CC00064B01221A6000BF80BD00BF1400002045
:1002DC001000002018000020000C01401C00002021
:1002EC003400002080B500AF1F4B1B681F4A136001
:1002FC001F4B1B681C4A13604FF400611D4801F032
:10030C005BFE03461A461A4B1A60184B1A68164BBA
:10031C001B689A4225D1144B1A68154B1B689A42DC
:10032C001FD1154B1A68124B1B689A420DD0104BFB
:10033C001B68114A13600E4B1B68002B11D1FFF781
:10034C0017FF0E4BC8221A600BE00C4B1B68013BCD
:10035C000A4A1360094B1B68002B02D1064B012281
:10036C001A6000BF80BD00BF2400002020000020C8
:10037C0028000020000C01402C0000203800002038
:10038C0080B500AF01228021254801F02CFE01220E
:10039C004FF48071224801F026FE01224FF40071C7
:1003AC001F4801F020FE01224FF480611C4801F02F
:1003BC001AFE01224FF40061194801F014FE0122CB
:1003CC004FF48051164801F00EFE01224FF40051FB
:1003DC00134801F008FE01220121124801F003FE2E
:1003EC00012202210F4801F0FEFD012204210D48DB
:1003FC0001F0F9FD012208210A4801F0F4FD012267
:10040C001021084801F0EFFD01222021054801F0E0
:10041C00EAFD01224021034801F0E5FD00BF80BD4B
:10042C0000080140000C014080B582B000AF78603C
:10043C007B68092B00F2BC8101A252F823F000BFAB
:10044C0075040008C90400081D05000871050008A2
:10045C00C5050008190600086D060008C10600084D
:10046C00150700086907000800228021D34801F015
:10047C00BAFD00224FF48071D04801F0B4FD002287
:10048C004FF40071CD4801F0AEFD00224FF48061B5
:10049C00CA4801F0A8FD00224FF40061C74801F0E2
:1004AC00A2FD00224FF48051C44801F09CFD0122B2
:1004BC004FF40051C14801F096FD7AE101228021F0
:1004CC00BE4801F090FD00224FF48071BB4801F052
:1004DC008AFD00224FF40071B84801F084FD01221E
:1004EC004FF48061B54801F07EFD01224FF40061AC
:1004FC00B24801F078FD01224FF48051AF4801F071
:10050C0072FD01224FF40051AC4801F06CFD50E13A
:10051C0000228021A94801F066FD00224FF4807171
:10052C00A64801F060FD01224FF40071A34801F0D0
:10053C005AFD00224FF48061A04801F054FD0022C6
:10054C004FF400619D4801F04EFD01224FF48051A3
:10055C009A4801F048FD00224FF40051974801F0F1
:10056C0042FD26E100228021944801F03CFD00224E
:10057C004FF48071914801F036FD00224FF4007168
:10058C008E4801F030FD00224FF480618B4801F061
:10059C002AFD01224FF40061884801F024FD01225C
:1005AC004FF48051854801F01EFD00224FF400519C
:1005BC00824801F018FDFCE0012280217F4801F007
:1005CC0012FD00224FF480717C4801F00CFD0022DA
:1005DC004FF40071794801F006FD01224FF480615F
:1005EC00764801F000FD01224FF40061734801F0E0
:1005FC00FAFC00224FF48051704801F0F4FC002208
:10060C004FF400516D4801F0EEFCD2E00022802145
:10061C006A4801F0E8FC01224FF48071674801F050
:10062C00E2FC00224FF40071644801F0DCFC002273
:10063C004FF48061614801F0D6FC01224FF4006157
:10064C005E4801F0D0FC00224FF480515B4801F071
:10065C00CAFC00224FF40051584801F0C4FCA8E039
:10066C0000228021554801F0BEFC01224FF480711C
:10067C00524801F0B8FC00224FF400714F4801F0D1
:10068C00B2FC00224FF480614C4801F0ACFC00221B
:10069C004FF40061494801F0A6FC00224FF4805150
:1006AC00464801F0A0FC00224FF40051434801F0F1
:1006BC009AFC7EE000228021404801F094FC00224C
:1006CC004FF480713D4801F08EFC00224FF4007114
:1006DC003A4801F088FC01224FF48061374801F060
:1006EC0082FC01224FF40061344801F07CFC0122B1
:1006FC004FF48051314801F076FC01224FF4005147
:10070C002E4801F070FC54E0002280212B4801F0AF
:10071C006AFC00224FF48071284801F064FC00222E
:10072C004FF40071254801F05EFC00224FF480610B
:10073C00224801F058FC00224FF400611F4801F0E0
:10074C0052FC00224FF480511C4801F04CFC00225A
:10075C004FF40051194801F046FC2AE00022802198
:10076C00164801F040FC00224FF48071134801F050
:10077C003AFC00224FF40071104801F034FC0022C6
:10078C004FF480610D4801F02EFC01224FF4006102
:10079C000A4801F028FC00224FF48051074801F070
:1007AC0022FC00224FF40051044801F01CFC00E034
:1007BC0000BF00BF0837BD4680BD00BF0008014028
:1007CC0080B582B000AF78607B68092B00F2808125
:1007DC0001A252F823F000BF0D08000855080008CC
:1007EC009D080008E50800082D0900087509000897
:1007FC00BD090008050A00084D0A0008950A000802
:10080C0000220121B54801F0EEFB00220221B34881
:10081C0001F0E9FB00220421B04801F0E4FB0022C6
:10082C000821AE4801F0DFFB00221021AB4801F09B
:10083C00DAFB00222021A94801F0D5FB012240213E
:10084C00A64801F0D0FB44E101220121A34801F0AC
:10085C00CAFB00220221A14801F0C5FB00220421A1
:10086C009E4801F0C0FB012208219C4801F0BBFB13
:10087C0001221021994801F0B6FB01222021974852
:10088C0001F0B1FB01224021944801F0ACFB20E1C6
:10089C0000220121914801F0A6FB002202218F4881
:1008AC0001F0A1FB012204218C4801F09CFB0022E9
:1008BC0008218A4801F097FB00221021874801F09B
:1008CC0092FB01222021854801F08DFB0022402162
:1008DC00824801F088FBFCE0002201217F4801F0F6
:1008EC0082FB002202217D4801F07DFB00220421C5
:1008FC007A4801F078FB00220821784801F073FB5C
:10090C0001221021754801F06EFB01222021734851
:10091C0001F069FB00224021704801F064FBD8E033
:10092C00012201216D4801F05EFB002202216B487F
:10093C0001F059FB00220421684801F054FB01220C
:10094C000821664801F04FFB01221021634801F099
:10095C004AFB00222021614801F045FB0022402186
:10096C005E4801F040FBB4E0002201215B4801F03D
:10097C003AFB01220221594801F035FB00220421E7
:10098C00564801F030FB00220821544801F02BFBA3
:10099C0001221021514801F026FB002220214F4852
:1009AC0001F021FB002240214C4801F01CFB90E09F
:1009BC0000220121494801F016FB0122022147487F
:1009CC0001F011FB00220421444801F00CFB002231
:1009DC000821424801F007FB002210213F4801F09A
:1009EC0002FB002220213D4801F0FDFA00224021AB
:1009FC003A4801F0F8FA6CE000220121374801F086
:100A0C00F2FA00220221354801F0EDFA002204210D
:100A1C00324801F0E8FA01220821304801F0E3FAEB
:100A2C00012210212D4801F0DEFA012220212B4851
:100A3C0001F0D9FA01224021284801F0D4FA48E00B
:100A4C0000220121254801F0CEFA00220221234880
:100A5C0001F0C9FA00220421204801F0C4FA002256
:100A6C0008211E4801F0BFFA002210211B4801F09A
:100A7C00BAFA00222021194801F0B5FA00224021CF
:100A8C00164801F0B0FA24E000220121134801F0CD
:100A9C00AAFA00220221114801F0A5FA0022042131
:100AAC000E4801F0A0FA002208210C4801F09BFA34
:100ABC0001221021094801F096FA00222021074852
:100ACC0001F091FA00224021044801F08CFA00E078
:100ADC0000BF00BF0837BD4680BD00BF000C014001
:100AEC0080B582B000AF78607B68002B03D07B6848
:100AFC00012B22D043E000224FF48041224801F028
:100B0C0072FA01224FF400411F4801F06CFA0022E6
:100B1C0080211E4801F067FA01224FF480511B48D6
:100B2C0001F061FA1A4B1B681846FFF749FE194B86
:100B3C001B681846FFF778FC21E001224FF4804136
:100B4C00114801F050FA00224FF400410E4801F018
:100B5C004AFA012280210D4801F045FA00224FF497
:100B6C0080510A4801F03FFA094B5B681846FFF7C1
:100B7C0027FE084B5B681846FFF756FC00BF00BF0A
:100B8C000837BD4680BD00BF00080140000C014085
:100B9C0000010020F800002080B500AF074B1B6857
:100BAC00012B02D100F00CF805E0044B1B68012B63
:100BBC0001D000F075F800BF80BD00BF48000020D8
:100BCC0080B500AF304B1B68092B06DC2F4B002285
:100BDC001A602D4B1B682D4A53602B4B1B68092B3D
:100BEC0018DD294B1B682A4A82FB03129210DB1773
:100BFC00D31A264A1360244B1968254B83FB012317
:100C0C009A10CB17D21A13469B0013445B00CA1AD6
:100C1C001E4B5A601F4B1B68092B06DC1E4B002217
:100C2C001A601C4B1B681C4A53601A4B1B68092B1F
:100C3C0018DD184B1B68164A82FB03129210DB1747
:100C4C00D31A154A1360134B1968114B83FB0123FC
:100C5C009A10CB17D21A13469B0013445B00CA1A86
:100C6C000D4B5A600D4B1B685A1C0C490A601846F8
:100C7C00FFF736FF094B1B68012B02DD074B0022E7
:100C8C001A6000BF80BD00BF10010020F8000020DA
:100C9C00676666661401002000010020F400002045
:100CAC0080B500AF4D4B00221A604D4B1B684B4A70
:100CBC0053604B4B1B68022B27D14A4B1B68092BEB
:100CCC0006DC494B00221A60464B1B68464A5360AF
:100CDC00444B1B68092B18DD424B1B68434A82FBB3
:100CEC0003129210DB17D31A3F4A13603D4B19685D
:100CFC003E4B83FB01239A10CB17D21A13469B0051
:100D0C0013445B00CA1A384B5A60354B1B68032BD3
:100D1C0027D1374B1B68092B06DC334B00221A609A
:100D2C00334B1B68304A5360314B1B68092B18DD61
:100D3C002F4B1B682D4A82FB03129210DB17D31A20
:100D4C00294A13602A4B1968284B83FB01239A10FC
:100D5C00CB17D21A13469B0013445B00CA1A224BC2
:100D6C005A601F4B1B68042B27D1224B1B68092B85
:100D7C0006DC1D4B00221A601E4B1B681A4A53607E
:100D8C00184B1B68092B18DD1A4B1B68174A82FB82
:100D9C0003129210DB17D31A134A1360154B196800
:100DAC00124B83FB01239A10CB17D21A13469B00CC
:100DBC0013445B00CA1A0C4B5A600F4B1B685A1C2D
:100DCC000D490A601846FFF78BFE0B4B1B68012B75
:100DDC0002DD094B00221A6000BF80BDF800002024
:100DEC00480000203C000020000100206766666679
:100DFC004000002044000020F400002080B400AF2C
:100E0C00064B1B68013B054A1360054B1B68013BF5
:100E1C00034A136000BFBD4680BC70471001002020
:100E2C001401002080B500AFAD4B1B680D3B042BAB
:100E3C0000F2538101A252F823F000BF5D0E0008AE
:100E4C00CD0E0008450F0008DD0F000853100008F8
:100E5C0001220221A34801F0C6F801220421A14875
:100E6C0001F0C1F8012208219E4801F0BCF80122D2
:100E7C0010219C4801F0B7F801222021994801F07B
:100E8C00B2F801224021974801F0ADF8944B0E22A4
:100E9C001A60954B1B68954A1360954B1B68954AD5
:100EAC001360914B1B68962202FB03F3924A13606A
:100EBC008F4B1B68962202FB03F3904A136028E1C8
:100ECC0000220221874801F08EF801220421854876
:100EDC0001F089F801220821824801F084F80122EE
:100EEC001021804801F07FF8012220217D4801F07B
:100EFC007AF8002240217B4801F075F87E4B1B6884
:100F0C00013B7D4A13607D4B1B68013B7B4A1360A0
:100F1C007A4B1B68002B00F3F580714B0F221A6083
:100F2C00774B1B68962202FB03F3744A1360744BD5
:100F3C001B68704A1360E5E000220221694801F049
:100F4C0052F801220421674801F04DF801220821D2
:100F5C00644801F048F801221021624801F043F87E
:100F6C00002220215F4801F03EF8012240215D481B
:100F7C0001F039F8604B1B68013B5F4A13605F4B13
:100F8C001B68013B5D4A13605B4B1B68002B00F335
:100F9C00BB805A4B1B68002B00F3B680504B1022C1
:100FAC001A60534B1B68962202FB03F3524A1360E0
:100FBC004D4B1B68962202FB03F3504A13604C4BBB
:100FCC001B684A4A1360484B1B684A4A13609BE0F3
:100FDC0001220221434801F006F801220421414874
:100FEC0001F001F8002208213E4800F0FCFF00222D
:100FFC0010213C4800F0F7FF01222021394800F075
:10100C00F2FF01224021374800F0EDFF3A4B1B68FC
:10101C00013B394A1360394B1B68013B374A13605B
:10102C00354B1B68002B71DC2D4B11221A60344B95
:10103C001B68962202FB03F32F4A1360304B1B688C
:10104C002A4A136062E001220221264800F0CBFFFD
:10105C0000220421234800F0C6FF01220821214868
:10106C0000F0C1FF002210211E4800F0BCFF01223D
:10107C0020211C4800F0B7FF01224021194800F044
:10108C00B2FF1D4B1B68013B1B4A13601B4B1B68BB
:10109C00013B1A4A1360184B1B68002B38DC174BAA
:1010AC001B68002B34DC0E4B0E221A600E4B1B6897
:1010BC00962202FB03F3104A13600D4B1B68962219
:1010CC0002FB03F30D4A1360074B1B68074A1360BE
:1010DC00074B1B68074A13601AE000BF19E000BFFA
:1010EC0024010020000801403C00002010010020D9
:1010FC004400002014010020080100200C010020F5
:10110C004000002000BF04E000BF02E000BF00E090
:10111C0000BF00BF80BD00BF80B500AF012204211D
:10112C000D4800F060FF012208210B4800F05BFF26
:10113C0001222021084800F056FF012240210648D8
:10114C0000F051FF0221044800F065FF1021024815
:10115C0000F061FF00BF80BD0008014080B500AF0A
:10116C00012202210D4800F03EFF012208210B480C
:10117C0000F039FF01221021084800F034FF012251
:10118C004021064800F02FFF0421044800F043FFE3
:10119C002021024800F03FFF00BF80BD0008014045
:1011AC0080B500AF012204210D4800F01CFF012284
:1011BC0002210B4800F017FF01222021084800F003
:1011CC0012FF01221021064800F00DFF08210448EF
:1011DC0000F021FF4021024800F01DFF00BF80BD40
:1011EC000008014080B500AFFEF7CEFF0346002B90
:1011FC002FD0194B1B68022B07D1184B1B68012BE6
:10120C0003D1174B1B68174A1360134B1B68032B36
:10121C0007D1154B1B68012B03D1144B1B68144AC7
:10122C0013600D4B1B68042B07D1124B1B68012B51
:10123C0003D1114B1B68114A1360074B1B68013318
:10124C00054A1360044B1B68042B02DD024B012280
:10125C001A6000BF80BD00BF4800002018010020AC
:10126C004C0000203C0000201C01002050000020FD
:10127C0040000020200100205400002044000020E9
:10128C0080B500AF034B1B68012B01D1FFF7CAFDE2
:10129C0000BF80BD4800002080B500AF034B1B6829
:1012AC00022B01D1FFF738FF00BF80BD48000020A2
:1012BC0080B500AF034B1B68032B01D1FFF74EFF2A
:1012CC0000BF80BD4800002080B500AF034B1B68F9
:1012DC00042B01D1FFF764FF00BF80BD4800002044
:1012EC0080B500AF00F07EFB00F08CF800F012F936
:1012FC0000F0C4F8334801F0D3FA0122022132483D
:10130C0000F071FE012204212F4800F06CFE012236
:10131C0008212D4800F067FE012210212A4800F018
:10132C0062FE01222021284800F05DFE01224021AE
:10133C00254800F058FEFFF723F8244B01221A60D1
:10134C00234B0D221A6001226421224800F060F91F
:10135C0032226421204800F05BF9322264211F48BC
:10136C0000F056F9322264211D4800F051F9642234
:10137C0064211C4800F04CF9192264211A4800F031
:10138C0047F90A226421194800F042F9002232215F
:10139C00174800F03DF932223221164800F038F996
:1013AC0032226421144800F033F9642232211348AC
:1013BC0000F02EF964226421114800F029F900F0A4
:1013CC00B3F9FCE73401002000080140480000207C
:1013DC00240100208D120008A5120008BD1200087F
:1013EC00D5120008090E0008A50B0008F111000821
:1013FC0031190008491900085D1900087519000811
:10140C008D19000880B590B000AF07F118032822A1
:10141C000021184601F00AFE3B1D00221A605A609A
:10142C009A60DA601A610223BB610123BB6210234C
:10143C00FB6200237B6307F11803184600F004FEDF
:10144C000346002B01D000F0DEF80F237B60002355
:10145C00BB600023FB6000233B6100237B613B1DD1
:10146C000021184601F070F80346002B01D000F063
:10147C00CAF800BF4037BD4680BD000080B586B0BD
:10148C0000AF07F1080300221A605A609A60DA6014
:10149C003B4600221A605A601D4B4FF080421A6086
:1014AC001B4B41F63F725A60194B00229A60184B45
:1014BC000922DA60164B00221A61154B00229A6140
:1014CC00134801F09DF90346002B01D000F09BF866
:1014DC004FF48053BB6007F1080319460C4801F028
:1014EC001BFB0346002B01D000F08DF800233B6062
:1014FC0000237B603B461946054801F0F3FC03468C
:10150C00002B01D000F07FF800BF1837BD4680BD1E
:10151C003401002080B586B000AF07F1080300222B
:10152C001A605A609A60DA60294B9B69284A43F02A
:10153C0004039361264B9B6903F004037B607B6877
:10154C00234B9B69224A43F008039361204B9B6910
:10155C0003F008033B603B6800224FF6FF711D4807
:10156C0000F041FD00224FF2FF111B4800F03BFD43
:10157C004FF6FF73BB600123FB6000233B6102232A
:10158C007B6107F108031946124800F09BFB4FF2F0
:10159C00FF13BB600123FB6000233B6102237B61D3
:1015AC0007F1080319460C4800F08CFB4FF46063FC
:1015BC00BB600023FB6001233B6107F10803194664
:1015CC00054800F07FFB00BF1837BD4680BD00BF4B
:1015DC000010024000080140000C014080B582B0B0
:1015EC0000AF78607B681B68B3F1804F07D1FEF7C2
:1015FC00DDFDFEF729FEFEF775FE00F07FF800BF5B
:10160C000837BD4680BD80B400AF72B600BFFEE7A0
:10161C0080B586B000AFF860B9607A601C2001F02C
:10162C00F5FC03463B613B69FA681A603B69BA6892
:10163C005A603B697A689A603B6900221A732D4B99
:10164C001B685A1C2B490A603A6913613B690022DA
:10165C009A61294B1B68002B05D0274B1B685B68D4
:10166C00BA689A4213D2244B1B68002B07D0224B2A
:10167C001B685968204B1B68BA688A1A5A601E4B43
:10168C001A683B699A611C4A3B6913602BE01A4B40
:10169C001B687B6107E07B695B68BA68D31ABB6027
:1016AC007B699B697B617B699B69002B05D07B699E
:1016BC009B695B68BA689A42EDD27B699B69002B87
:1016CC0007D07B699B6959687B699B69BA688A1AE0
:1016DC005A603B69BA685A607B699A693B699A613E
:1016EC007B693A699A613B691B69DBB2184618370A
:1016FC00BD4680BD580000208001002080B400AFA2
:10170C00084B1B68002B09D0064B1B685B68002B31
:10171C0004D0044B1B685A68013A5A6000BFBD469E
:10172C0080BC70478001002080B582B000AF25E0FE
:10173C00194B1B687B607B681B6898477B689B68B0
:10174C00002B14D07B689A687B685A607B689B6915
:10175C00114A13607B6818687B6859687B689B68C2
:10176C001A46FFF755FF786801F058FC06E07B68D5
:10177C009B69094A1360786801F050FC064B1B68A2
:10178C00002B04D0044B1B685B68002BD0D000BF2F
:10179C000837BD4680BD00BF8001002080B485B0F5
:1017AC0000AF154B9B69144A43F001039361124B34
:1017BC009B6903F00103BB60BB680F4BDB690E4AEE
:1017CC0043F08053D3610C4BDB6903F080537B6097
:1017DC007B680A4B5B68FB60FB6823F0E063FB6093
:1017EC00FB6843F08063FB60044AFB68536000BFF6
:1017FC001437BD4680BC7047001002400000014009
:10180C0080B584B000AF78607B681B68B3F1804F03
:10181C0013D10C4BDB690B4A43F00103D361094B29
:10182C00DB6903F00103FB60FB68002200211C2034
:10183C0000F011FA1C2000F02AFA00BF1037BD4648
:10184C0080BD00BF0010024080B400AFFEE780B442
:10185C0000AFFEE780B400AFFEE780B400AFFEE758
:10186C0080B400AFFEE780B400AF00BFBD4680BCC3
:10187C00704780B400AF00BFBD4680BC704780B4D9
:10188C0000AF00BFBD4680BC704780B500AF00F014
:10189C00EFF800BF80BD000080B500AF024801F03A
:1018AC004BF800BF80BD00BF3401002080B586B06E
:1018BC0000AF7860144A154BD31A7B617B693B618E
:1018CC00134B1B68002B02D1114B124A1A60104BA0
:1018DC001A687B6813443A699A4207D201F06CFB90
:1018EC0003460C221A604FF0FF3309E0084B1B68CB
:1018FC00FB60074B1A687B681344054A1360FB684E
:10190C0018461837BD4680BD002800200004000092
:10191C0028010020A001002080B400AF00BFBD460C
:10192C0080BC704780B500AF4FF48071024800F066
:10193C0072FB00BF80BD00BF000C014080B500AF42
:10194C000121024800F067FB00BF80BD0008014088
:10195C0080B500AF4FF40051024800F05CFB00BFB3
:10196C0080BD00BF000C014080B500AF4FF480413A
:10197C00024800F050FB00BF80BD00BF000C0140CE
:10198C0080B500AF4FF40041024800F044FB00BFAB
:10199C0080BD00BF000C0140FFF7BEFF0B480C4997
:1019AC000C4A002302E0D458C4500433C4188C42AF
:1019BC00F9D3094A094C002301E013600432A24216
:1019CC00FBD301F0FFFAFFF78BFC704700000020FF
:1019DC00CC00002014320008CC0000209C01002018
:1019EC00FEE7000080B500AF084B1B68074A43F0C8
:1019FC0010031360032000F023F90F2000F008F807
:101A0C00FFF7CCFE0023184680BD00BF002002402B
:101A1C0080B582B000AF7860124B1A68124B1B78FD
:101A2C0019464FF47A73B3FBF1F3B2FBF3F3184698
:101A3C0000F03BF90346002B01D001230EE07B683C
:101A4C000F2B0AD8002279684FF0FF3000F003F911
:101A5C00064A7B681360002300E001231846083710
:101A6C00BD4680BD5C0000206400002060000020AA
:101A7C0080B400AF054B1B781A46054B1B6813440A
:101A8C00034A136000BFBD4680BC70476400002051
:101A9C008801002080B400AF024B1B681846BD467D
:101AAC0080BC70478801002080B485B000AF78609E
:101ABC007B6803F00703FB600C4BDB68BB60BA6808
:101ACC004FF6FF031340BB60FB681A02BB6813435D
:101ADC0043F0BF6343F40033BB60044ABB68D3607C
:101AEC0000BF1437BD4680BC704700BF00ED00E05E
:101AFC0080B400AF044BDB681B0A03F007031846E5
:101B0C00BD4680BC704700BF00ED00E080B483B0E0
:101B1C0000AF0346FB7197F90730002B0BDBFB7909
:101B2C0003F01F02064997F907305B09012000FA00
:101B3C0002F241F8232000BF0C37BD4680BC704731
:101B4C0000E100E080B483B000AF03463960FB7164
:101B5C0097F90730002B0ADB3B68DAB20C4997F98E
:101B6C0007301201D2B20B4483F800230AE03B6821
:101B7C00DAB20849FB7903F00F03043B1201D2B22D
:101B8C000B441A7600BF0C37BD4680BC704700BFB3
:101B9C0000E100E000ED00E080B489B000AFF86037
:101BAC00B9607A60FB6803F00703FB61FB69C3F162
:101BBC000703042B28BF0423BB61FB690433062BEA
:101BCC0002D9FB69033B00E000237B614FF0FF323D
:101BDC00BB6902FA03F3DA43BB681A407B699A408B
:101BEC004FF0FF317B6901FA03F3D9437B680B405B
:101BFC00134318462437BD4680BC704780B582B06D
:101C0C0000AF78607B68013BB3F1807F01D3012387
:101C1C000FE00A4A7B68013B53600F214FF0FF3005
:101C2C00FFF790FF054B00229A60044B07221A60C5
:101C3C00002318460837BD4680BD00BF10E000E009
:101C4C0080B582B000AF78607868FFF72DFF00BFD9
:101C5C000837BD4680BD80B586B000AF0346B9607D
:101C6C007A60FB7300237B61FFF742FF78617A682F
:101C7C00B9687869FFF790FF024697F90F30114663
:101C8C001846FFF75FFF00BF1837BD4680BD80B513
:101C9C0082B000AF0346FB7197F907301846FFF787
:101CAC0035FF00BF0837BD4680BD80B582B000AFA0
:101CBC0078607868FFF7A2FF034618460837BD46E0
:101CCC0080BD000080B48BB000AF78603960002319
:101CDC007B6200233B6248E101227B6A02FA03F338
:101CEC00FB613B681B68FA691340BB61BA69FB690D
:101CFC009A4240F037813B685B68A34A93425ED0BE
:101D0C00A14A934275D8A14A934258D09F4A934214
:101D1C006FD89F4A934252D09D4A934269D89D4AAC
:101D2C0093424CD09B4A934263D89B4A934246D0F1
:101D3C00994A93425DD8122B2AD8122B59D801A25A
:101D4C0052F823F0CB1D0008A51D0008B71D000894
:101D5C00F91D0008FF1D0008FF1D0008FF1D0008ED
:101D6C00FF1D0008FF1D0008FF1D0008FF1D0008D7
:101D7C00FF1D0008FF1D0008FF1D0008FF1D0008C7
:101D8C00FF1D0008FF1D0008AD1D0008C11D000847
:101D9C00824A934213D02CE03B68DB683B6229E01B
:101DAC003B68DB6804333B6224E03B68DB68083348
:101DBC003B621FE03B68DB680C333B621AE03B681C
:101DCC009B68002B02D104233B6213E03B689B68A9
:101DDC00012B05D108233B627B68FA691A6109E083
:101DEC0008233B627B68FA695A6103E000233B627B
:101DFC0000E000BFBB69FF2B01D87B6801E07B686A
:101E0C0004337B61BB69FF2B02D87B6A9B0002E029
:101E1C007B6A083B9B003B617B691A680F213B691D
:101E2C0001FA03F3DB431A40396A3B6901FA03F305
:101E3C001A437B691A603B685B6803F08053002B84
:101E4C0000F09080564B9B69554A43F00103936117
:101E5C00534B9B6903F00103BB60BB68514A7B6A1F
:101E6C009B08023352F82330FB607B6A03F00303B8
:101E7C009B000F2202FA03F3DB43FA681340FB606A
:101E8C007B68494A93420DD07B68484A934207D0FD
:101E9C007B68474A934201D1022304E0032302E00A
:101EAC00012300E000237A6A02F0030292009340BF
:101EBC00FA681343FB603B497B6A9B080233FA6860
:101ECC0041F823203B685B6803F48013002B06D099
:101EDC00384B9A683749BB6913438B6006E0354B26
:101EEC009A68BB69DB43334913408B603B685B6882
:101EFC0003F40013002B06D02E4BDA682D49BB6976
:101F0C001343CB6006E02B4BDA68BB69DB432949F2
:101F1C001340CB603B685B6803F40033002B06D0A6
:101F2C00244B5A682349BB6913434B6006E0214B91
:101F3C005A68BB69DB431F4913404B603B685B68C5
:101F4C0003F48033002B06D01A4B1A681949BB696D
:101F5C0013430B6006E0174B1A68BB69DB4315494A
:101F6C0013400B607B6A01337B623B681A687B6AA7
:101F7C0022FA03F3002B7FF4AFAE00BF00BF2C3767
:101F8C00BD4680BC704700BF00003210000031100D
:101F9C00000022100000211000001210000011108F
:101FAC00001002400000014000080140000C0140FC
:101FBC00001001400004014080B485B000AF78608F
:101FCC000B467B807B689A687B881340002B02D081
:101FDC000123FB7301E00023FB73FB7B18461437D2
:101FEC00BD4680BC704780B483B000AF78600B46B0
:101FFC007B8013467B707B78002B03D07A887B68C0
:10200C001A6103E07B881A047B681A6100BF0C37E5
:10201C00BD4680BC704780B485B000AF78600B467D
:10202C007B807B68DB68FB607A88FB6813401A0452
:10203C00FB68D9437B880B401A437B681A6100BF4D
:10204C001437BD4680BC704780B586B000AF786051
:10205C007B68002B01D101236CE27B681B6803F0C9
:10206C000103002B00F08780924B5B6803F00C039C
:10207C00042B0CD08F4B5B6803F00C03082B12D194
:10208C008C4B5B6803F48033B3F5803F0BD1894BE9
:10209C001B6803F40033002B6CD07B685B68002B4F
:1020AC0068D1012346E27B685B68B3F5803F06D1BB
:1020BC00804B1B687F4A43F4803313602EE07B68AF
:1020CC005B68002B0CD17B4B1B687A4A23F4803362
:1020DC001360784B1B68774A23F4802313601DE050
:1020EC007B685B68B3F5A02F0CD1724B1B68714AEF
:1020FC0043F4802313606F4B1B686E4A43F48033A8
:10210C0013600BE06B4B1B686A4A23F4803313603B
:10211C00684B1B68674A23F4802313607B685B68F9
:10212C00002B13D0FFF7B6FC386108E0FFF7B2FCC8
:10213C0002463B69D31A642B01D90323FAE15D4BA8
:10214C001B6803F40033002BF0D014E0FFF7A2FC63
:10215C00386108E0FFF79EFC02463B69D31A642BFA
:10216C0001D90323E6E1534B1B6803F40033002B26
:10217C00F0D100E000BF7B681B6803F00203002B6A
:10218C0063D04C4B5B6803F00C03002B0BD0494B1A
:10219C005B6803F00C03082B1CD1464B5B6803F403
:1021AC008033002B16D1434B1B6803F00203002B2A
:1021BC0005D07B681B69012B01D00123BAE13D4B93
:1021CC001B6823F0F8027B685B69DB003949134319
:1021DC000B603AE07B681B69002B20D0364B012248
:1021EC001A60FFF757FC386108E0FFF753FC024612
:1021FC003B69D31A022B01D903239BE12D4B1B689E
:10220C0003F00203002BF0D02A4B1B6823F0F802DA
:10221C007B685B69DB00274913430B6015E0264B99
:10222C0000221A60FFF736FC386108E0FFF732FC39
:10223C0002463B69D31A022B01D903237AE11D4BC9
:10224C001B6803F00203002BF0D17B681B6803F0C2
:10225C000803002B3AD07B689B69002B19D0174BD5
:10226C0001221A60FFF716FC386108E0FFF712FC38
:10227C0002463B69D31A022B01D903235AE10D4BB9
:10228C005B6A03F00203002BF0D0012000F09AFAF5
:10229C001CE00A4B00221A60FFF7FCFB38610FE0D0
:1022AC00FFF7F8FB02463B69D31A022B08D903232C
:1022BC0040E100BF00100240000042428004424254
:1022CC009E4B5B6A03F00203002BE9D17B681B6811
:1022DC0003F00403002B00F0A6800023FB75974B42
:1022EC00DB6903F08053002B0DD1944BDB69934ACF
:1022FC0043F08053D361914BDB6903F08053BB6097
:10230C00BB680123FB758E4B1B6803F48073002B99
:10231C0018D18B4B1B688A4A43F480731360FFF708
:10232C00B9FB386108E0FFF7B5FB02463B69D31AED
:10233C00642B01D90323FDE0814B1B6803F48073EC
:10234C00002BF0D07B68DB68012B06D17B4B1B6A22
:10235C007A4A43F0010313622DE07B68DB68002BA3
:10236C000CD1764B1B6A754A23F001031362734B35
:10237C001B6A724A23F0040313621CE07B68DB685F
:10238C00052B0CD16D4B1B6A6C4A43F00403136292
:10239C006A4B1B6A694A43F0010313620BE0674BFB
:1023AC001B6A664A23F001031362644B1B6A634A7F
:1023BC0023F0040313627B68DB68002B15D0FFF756
:1023CC0069FB38610AE0FFF765FB02463B69D31AEB
:1023DC0041F28832934201D90323ABE0574B1B6A7D
:1023EC0003F00203002BEED014E0FFF753FB38612F
:1023FC000AE0FFF74FFB02463B69D31A41F28832E1
:10240C00934201D9032395E04C4B1B6A03F0020362
:10241C00002BEED1FB7D012B05D1484BDB69474AE4
:10242C0023F08053D3617B68DB69002B00F0818043
:10243C00424B5B6803F00C03082B61D07B68DB69B3
:10244C00022B46D13F4B00221A60FFF723FB386169
:10245C0008E0FFF71FFB02463B69D31A022B01D998
:10246C00032367E0354B1B6803F00073002BF0D19E
:10247C007B681B6AB3F5803F08D1304B5B6823F453
:10248C0000327B689B682D4913434B602B4B5B6878
:10249C0023F474127B68196A7B685B6A0B432749C7
:1024AC0013434B60274B01221A60FFF7F3FA386194
:1024BC0008E0FFF7EFFA02463B69D31A022B01D969
:1024CC00032337E01D4B1B6803F00073002BF0D087
:1024DC002FE01C4B00221A60FFF7DCFA386108E091
:1024EC00FFF7D8FA02463B69D31A022B01D9032312
:1024FC0020E0124B1B6803F00073002BF0D118E0A6
:10250C007B68DB69012B01D1012313E00B4B5B686A
:10251C00FB60FB6803F480327B681B6A9A4206D12D
:10252C00FB6803F470127B685B6A9A4201D001234A
:10253C0000E0002318461837BD4680BD001002404D
:10254C00007000406000424280B584B000AF7860FB
:10255C0039607B68002B01D10123D0E06A4B1B68EA
:10256C0003F007033A689A4210D9674B1B6823F0B3
:10257C00070265493B6813430B60634B1B6803F010
:10258C0007033A689A4201D00123B8E07B681B68C4
:10259C0003F00203002B20D07B681B6803F00403BC
:1025AC00002B05D0594B5B68584A43F4E0635360E9
:1025BC007B681B6803F00803002B05D0534B5B684A
:1025CC00524A43F460535360504B5B6823F0F00263
:1025DC007B689B684D4913434B607B681B6803F019
:1025EC000103002B40D07B685B68012B07D1474B64
:1025FC001B6803F40033002B15D101237FE07B68AB
:10260C005B68022B07D1414B1B6803F00073002B56
:10261C0009D1012373E03D4B1B6803F00203002B2F
:10262C0001D101236BE0394B5B6823F003027B681B
:10263C005B68364913434B60FFF72CFAF8600AE0ED
:10264C00FFF728FA0246FB68D31A41F2883293420C
:10265C0001D9032353E02D4B5B6803F00C027B681C
:10266C005B689B009A42EBD1274B1B6803F0070376
:10267C003A689A4210D2244B1B6823F00702224975
:10268C003B6813430B60204B1B6803F007033A684D
:10269C009A4201D0012332E07B681B6803F00403EB
:1026AC00002B08D0194B5B6823F4E0627B68DB6875
:1026BC00164913434B607B681B6803F00803002B1F
:1026CC0009D0124B5B6823F460527B681B69DB00FA
:1026DC000E4913434B6000F021F802460B4B5B682C
:1026EC001B0903F00F030A49CB5C22FA03F3094AD6
:1026FC001360094B1B681846FFF78AF9002318462C
:10270C001037BD4680BD00BF0020024000100240C3
:10271C00E83100085C0000206000002080B487B025
:10272C0000AF0023FB600023BB6000237B61002310
:10273C007B6000233B611E4B5B68FB60FB6803F016
:10274C000C03042B02D0082B03D027E0194B3B6160
:10275C0027E0FB689B0C03F00F03174AD35C7B60EC
:10276C00FB6803F48033002B10D0114B5B685B0CBF
:10277C0003F00103114AD35CBB607B680D4A02FB7A
:10278C0003F2BB68B2FBF3F37B6104E07B680C4A99
:10279C0002FB03F37B617B693B6102E0054B3B6110
:1027AC0000BF3B6918461C37BD4680BC704700BF54
:1027BC000010024000127A00F831000808320008BC
:1027CC0000093D0080B485B000AF78600A4B1B68EF
:1027DC000A4AA2FB03235B0A7A6802FB03F3FB6041
:1027EC0000BFFB685A1EFA60002BF9D100BF00BF76
:1027FC001437BD4680BC70475C000020D34D62107E
:10280C0080B582B000AF78607B68002B01D10123CA
:10281C0041E07B6893F83D30DBB2002B06D17B683E
:10282C00002283F83C207868FEF7EAFF7B680222DE
:10283C0083F83D207B681A687B6804331946104680
:10284C0000F056FA7B68012283F846207B6801224F
:10285C0083F83E207B68012283F83F207B680122AD
:10286C0083F840207B68012283F841207B68012299
:10287C0083F842207B68012283F843207B68012285
:10288C0083F844207B68012283F845207B68012271
:10289C0083F83D20002318460837BD4680BD000054
:1028AC0080B485B000AF78607B6893F83D30DBB2C4
:1028BC00012B01D0012335E07B68022283F83D20F7
:1028CC007B681B68DA687B681B6842F00102DA607F
:1028DC007B681B68164A934209D07B681B68B3F16E
:1028EC00804F04D07B681B68124A934211D17B68DD
:1028FC001B689B6803F00703FB60FB68062B10D07A
:10290C007B681B681A687B681B6842F001021A60BE
:10291C0007E07B681B681A687B681B6842F0010241
:10292C001A60002318461437BD4680BC704700BFA0
:10293C00002C01400004004080B584B000AF7860EA
:10294C007B681B68DB68FB607B681B681B69BB6072
:10295C00BB6803F00203002B20D0FB6803F00203DA
:10296C00002B1BD07B681B686FF002021A617B681E
:10297C0001221A777B681B689B6903F00303002B09
:10298C0003D0786800F098F905E0786800F08BF9CE
:10299C00786800F09AF97B6800221A77BB6803F01C
:1029AC000403002B20D0FB6803F00403002B1BD086
:1029BC007B681B686FF004021A617B6802221A772D
:1029CC007B681B689B6903F44073002B03D0786809
:1029DC0000F072F905E0786800F065F9786800F0AD
:1029EC0074F97B6800221A77BB6803F00803002B8C
:1029FC0020D0FB6803F00803002B1BD07B681B68FE
:102A0C006FF008021A617B6804221A777B681B68D6
:102A1C00DB6903F00303002B03D0786800F04CF95A
:102A2C0005E0786800F03FF9786800F04EF97B68B3
:102A3C0000221A77BB6803F01003002B20D0FB6830
:102A4C0003F01003002B1BD07B681B686FF0100287
:102A5C001A617B6808221A777B681B68DB6903F4B0
:102A6C004073002B03D0786800F026F905E07868F5
:102A7C0000F019F9786800F028F97B6800221A77C1
:102A8C00BB6803F00103002B0CD0FB6803F00103BF
:102A9C00002B07D07B681B686FF001021A61786805
:102AAC00FEF79CFDBB6803F08003002B0CD0FB6889
:102ABC0003F08003002B07D07B681B686FF080024B
:102ACC001A61786800F06FFABB6803F04003002BC2
:102ADC000CD0FB6803F04003002B07D07B681B680D
:102AEC006FF040021A61786800F0F8F8BB6803F0E8
:102AFC002003002B0CD0FB6803F02003002B07D025
:102B0C007B681B686FF020021A61786800F042FA4B
:102B1C0000BF1037BD4680BD80B584B000AF786073
:102B2C0039600023FB737B6893F83C30012B01D197
:102B3C000223B4E07B68012283F83C207B680222EC
:102B4C0083F83D207B681B689B68BB60BB6823F0E7
:102B5C007703BB60BB6823F47F43BB607B681B6857
:102B6C00BA689A603B681B68B3F5005F3ED0B3F55A
:102B7C00005F00F28780B3F5805F00F08680B3F5CC
:102B8C00805F7FD8702B1AD0702B7BD8602B50D0E5
:102B9C00602B77D8502B3CD0502B73D8402B58D06F
:102BAC00402B6FD8302B64D0302B6BD8202B60D0BF
:102BBC00202B67D8002B5CD0102B5AD062E07B689E
:102BCC0018683B6899683B685A683B68DB6800F09A
:102BDC006AF97B681B689B68BB60BB6843F0770332
:102BEC00BB607B681B68BA689A604FE07B681868AA
:102BFC003B6899683B685A683B68DB6800F053F99E
:102C0C007B681B689A687B681B6842F480429A60F8
:102C1C003CE07B6818683B6859683B68DB681A467F
:102C2C0000F0CAF87B681B685021184600F021F9A7
:102C3C002CE07B6818683B6859683B68DB681A466F
:102C4C0000F0E8F87B681B686021184600F011F969
:102C5C001CE07B6818683B6859683B68DB681A465F
:102C6C0000F0AAF87B681B684021184600F001F9B7
:102C7C000CE07B681A683B681B681946104600F02C
:102C8C00F8F803E00123FB7300E000BF7B6801222E
:102C9C0083F83D207B68002283F83C20FB7B1846A0
:102CAC001037BD4680BD80B483B000AF786000BFE4
:102CBC000C37BD4680BC704780B483B000AF7860E1
:102CCC0000BF0C37BD4680BC704780B483B000AFEA
:102CDC00786000BF0C37BD4680BC704780B483B0B1
:102CEC0000AF786000BF0C37BD4680BC7047000059
:102CFC0080B485B000AF786039607B681B68FB607E
:102D0C007B682B4A934207D07B68B3F1804F03D08A
:102D1C007B68284A934208D1FB6823F07003FB6060
:102D2C003B685B68FA681343FB607B68204A9342FC
:102D3C0007D07B68B3F1804F03D07B681D4A934268
:102D4C0008D1FB6823F44073FB603B68DB68FA68CE
:102D5C001343FB60FB6823F080023B685B69134301
:102D6C00FB607B68FA681A603B689A687B68DA6279
:102D7C003B681A687B689A627B680D4A934203D160
:102D8C003B681A697B681A637B6801225A617B680D
:102D9C001B6903F00103002B05D07B681B6923F032
:102DAC0001027B681A6100BF1437BD4680BC7047B6
:102DBC00002C01400004004080B487B000AFF860E4
:102DCC00B9607A60FB681B6A7B61FB681B6A23F045
:102DDC000102FB681A62FB689B693B613B6923F04B
:102DEC00F0033B617B681B013A6913433B617B69D0
:102DFC0023F00A037B617A69BB6813437B61FB6830
:102E0C003A699A61FB687A691A6200BF1C37BD4641
:102E1C0080BC704780B487B000AFF860B9607A604E
:102E2C00FB681B6A7B61FB681B6A23F01002FB6862
:102E3C001A62FB689B693B613B6923F470433B61FD
:102E4C007B681B033A6913433B617B6923F0A00346
:102E5C007B61BB681B017A6913437B61FB683A6930
:102E6C009A61FB687A691A6200BF1C37BD4680BC48
:102E7C00704780B485B000AF786039607B689B6820
:102E8C00FB60FB6823F07003FB603A68FB6813433C
:102E9C0043F00703FB607B68FA689A6000BF143745
:102EAC00BD4680BC704780B487B000AFF860B96095
:102EBC007A603B60FB689B687B617B6923F47F4392
:102ECC007B613B681A027B681A43BB6813437A69BF
:102EDC0013437B61FB687A699A6000BF1C37BD465F
:102EEC0080BC704780B485B000AF786039607B6877
:102EFC0093F83C30012B01D1022341E07B68012285
:102F0C0083F83C207B68022283F83D207B681B6899
:102F1C005B68FB607B681B689B68BB60FB6823F08D
:102F2C007003FB603B681B68FA681343FB607B68AB
:102F3C001B68FA685A607B681B68144A934209D074
:102F4C007B681B68B3F1804F04D07B681B68104A08
:102F5C0093420CD1BB6823F08003BB603B685B6879
:102F6C00BA681343BB607B681B68BA689A607B685D
:102F7C00012283F83D207B68002283F83C2000234B
:102F8C0018461437BD4680BC704700BF002C01406A
:102F9C000004004080B483B000AF786000BF0C37F1
:102FAC00BD4680BC704780B483B000AF786000BF72
:102FBC000C37BD4680BC7047014B1868704700BF8A
:102FCC006800002070B500260C4D0D4C641BA4103D
:102FDC00A64209D100F0F6F800260A4D0A4C641BF3
:102FEC00A410A64205D170BD55F8043B9847013694
:102FFC00EEE755F8043B98470136F2E70C3200082F
:10300C000C3200080C32000810320008024B01464A
:10301C00186800F05FB800BF68000020024B014642
:10302C00186800F00BB800BF68000020034602448B
:10303C00934200D1704703F8011BF9E738B50546F8
:10304C00002943D051F8043C0C1F002BB8BFE418E6
:10305C0000F0AAF81E4A1368104633B96360146076
:10306C002846BDE8384000F0A5B8A3420AD921682B
:10307C006218934201BF1A685B6852182260636041
:10308C000460EDE71A465B680BB1A342FAD91168EC
:10309C005018A0420BD12068014450188342116093
:1030AC00DED118685B68014411605360D8E702D91F
:1030BC000C232B60D4E7206821188B4201BF1968C0
:1030CC005B680918216063605460C9E738BD00BFB4
:1030DC002C010020F8B5CD1C25F0030508350C2D6E
:1030EC0038BF0C25002D064601DBA94203D90C2361
:1030FC0033600020F8BD00F057F821490A681446E7
:10310C009CB9204F3B6823B92146304600F03CF86F
:10311C0038602946304600F037F8431C23D10C2385
:10312C003046336000F046F8E3E723685B1B17D4A6
:10313C000B2B03D923601C44256004E06368A24276
:10314C000CBF0B605360304600F034F804F10B00F8
:10315C00231D20F00700C21ACCD01B1AA350C9E7BC
:10316C0022466468CCE7C41C24F00304A042E3D0DC
:10317C00211A304600F008F80130DDD1CFE700BF4E
:10318C002C0100203001002038B50023054D0446E9
:10319C0008462B60FEF78AFB431C02D12B6803B157
:1031AC00236038BD8C010020014800F009B800BF35
:1031BC0094010020014800F004B800BF94010020E5
:1031CC0070477047F8B500BFF8BC08BC9E46704706
:0C31DC00F8B500BFF8BC08BC9E46704768
:1031E80000000000000000000102030406070809AF
:1031F80002030405060708090A0B0C0D0E0F101030
:0432080001020000BF
:04320C003101000884
:043210000D010008A4
:1032140001000000010000000100000001000000A6
:103224000100000001000000010000000100000096
:103234000100000001000000010000000100000086
:10324400C8000000C8000000C8000000050000001D
:10325400020000000300000001000000050000005F
:1032640002000000030000000100000000127A00C8
:1032740010000000010000006C00002000000000AD
:10328400000000000000000000000000000000003A
:10329400000000000000000000000000000000002A
:1032A400000000000000000000000000000000001A
:1032B400000000000000000000000000000000000A
:1032C40000000000000000000000000000000000FA
:0C32D400000000000000000000000000EE
:04000005080019A531
:00000001FF
