:020000040800F2
:1000000000280020111C0008351B00083B1B0008BD
:10001000411B0008471B00084D1B000800000000A2
:10002000000000000000000000000000531B00085A
:100030005F1B0008000000006B1B0008771B000816
:10004000591C0008591C0008591C0008591C0008BC
:10005000591C0008591C0008591C0008591C0008AC
:10006000591C0008591C0008591C0008591C00089C
:10007000591C0008591C0008591C0008591C00088C
:10008000591C0008591C0008591C0008591C00087C
:10009000591C0008591C0008591C0008591C00086C
:1000A000591C0008591C0008591C0008591C00085C
:1000B000851B0008591C000800000000591C00089E
:1000C000591C00080000000000000000591C000836
:1000D00000000000591C0008591C00080000000026
:1000E000591C0008591C0008591C00080000000099
:1000F0000000000000000000000000000000000000
:0C01000000000000000000005FF808F1A3
:10010C0010B5054C237833B9044B13B10448AFF345
:10011C0000800123237010BDBC00002000000000F3
:10012C003C34000808B5034B1BB103490348AFF33B
:10013C00008008BD00000000C00000203C34000816
:10014C0080B400AF034B01221A6000BFBD4680BCD7
:10015C00704700BFD800002080B400AF034B0122D1
:10016C001A6000BFBD4680BC704700BFDC00002099
:10017C0080B400AF034B01221A6000BFBD4680BCA7
:10018C00704700BFE000002080B400AF064B1B6836
:10019C00012B04D1044B00221A60012300E0002340
:1001AC001846BD4680BC7047D800002080B400AF14
:1001BC00064B1B68012B04D1044B00221A6001234F
:1001CC0000E000231846BD4680BC7047DC000020D0
:1001DC0080B400AF064B1B68012B04D1044B0022EA
:1001EC001A60012300E000231846BD4680BC70470E
:1001FC00E000002080B500AF1F4B1B681F4A136046
:10020C001F4B1B681C4A13604FF400711D4802F011
:10021C0009F803461A461A4B1A60184B1A68164B03
:10022C001B689A4225D1144B1A68154B1B689A42CD
:10023C001FD1154B1A68124B1B689A420DD0104BEC
:10024C001B68114A13600E4B1B68002B11D1FFF772
:10025C0077FF0E4BC8221A600BE00C4B1B68013B5E
:10026C000A4A1360094B1B68002B02D1064B012272
:10027C001A6000BF80BD00BF0400002000000020F9
:10028C0008000020000C01400C0000203000002071
:10029C0080B500AF1F4B1B681F4A13601F4B1B68B8
:1002AC001C4A13604FF480611D4801F0BBFF0346EC
:1002BC001A461A4B1A60184B1A68164B1B689A424E
:1002CC0025D1144B1A68154B1B689A421FD1154B3C
:1002DC001A68124B1B689A420DD0104B1B68114ABE
:1002EC0013600E4B1B68002B11D1FFF735FF0E4B23
:1002FC00C8221A600BE00C4B1B68013B0A4A1360C6
:10030C00094B1B68002B02D1064B01221A6000BF5F
:10031C0080BD00BF14000020100000201800002039
:10032C00000C01401C0000203400002080B500AF00
:10033C001F4B1B681F4A13601F4B1B681C4A136022
:10034C004FF400611D4801F06DFF03461A461A4B2D
:10035C001A60184B1A68164B1B689A4225D1144B1D
:10036C001A68154B1B689A421FD1154B1A68124B11
:10037C001B689A420DD0104B1B68114A13600E4B30
:10038C001B68002B11D1FFF7F3FE0E4BC8221A602D
:10039C000BE00C4B1B68013B0A4A1360094B1B68B2
:1003AC00002B02D1064B01221A6000BF80BD00BF9A
:1003BC00240000202000002028000020000C014018
:1003CC002C0000203800002080B500AF01228021D5
:1003DC00254801F03EFF01224FF48071224801F0C4
:1003EC0038FF01224FF400711F4801F032FF012247
:1003FC004FF480611C4801F02CFF01224FF4006186
:10040C00194801F026FF01224FF48051164801F0E3
:10041C0020FF01224FF40051134801F01AFF012272
:10042C000121124801F015FF012202210F4801F0B1
:10043C0010FF012204210D4801F00BFF01220821BD
:10044C000A4801F006FF01221021084801F001FFC3
:10045C0001222021054801F0FCFE01224021034825
:10046C0001F0F7FE00BF80BD00080140000C014008
:10047C0080B582B000AF78607B68092B00F2BC813C
:10048C0001A252F823F000BFBD04000811050008BA
:10049C0065050008B90500080D060008610600088E
:1004AC00B5060008090700085D070008B107000839
:1004BC0000228021D34801F0CCFE00224FF4807141
:1004CC00D04801F0C6FE00224FF40071CD4801F077
:1004DC00C0FE00224FF48061CA4801F0BAFE00222F
:1004EC004FF40061C74801F0B4FE00224FF4805174
:1004FC00C44801F0AEFE01224FF40051C14801F096
:10050C00A8FE7AE101228021BE4801F0A2FE002261
:10051C004FF48071BB4801F09CFE00224FF4007137
:10052C00B84801F096FE01224FF48061B54801F005
:10053C0090FE01224FF40061B24801F08AFE0122C4
:10054C004FF48051AF4801F084FE01224FF400516A
:10055C00AC4801F07EFE50E100228021A94801F058
:10056C0078FE00224FF48071A64801F072FE012241
:10057C004FF40071A34801F06CFE00224FF480612F
:10058C00A04801F066FE00224FF400619D4801F086
:10059C0060FE01224FF480519A4801F05AFE00226D
:1005AC004FF40051974801F054FE26E100228021BF
:1005BC00944801F04EFE00224FF48071914801F0F6
:1005CC0048FE00224FF400718E4801F042FE0022DA
:1005DC004FF480618B4801F03CFE01224FF4006126
:1005EC00884801F036FE01224FF48051854801F015
:1005FC0030FE00224FF40051824801F02AFEFCE04C
:10060C00012280217F4801F024FE00224FF48071EA
:10061C007C4801F01EFE00224FF40071794801F075
:10062C0018FE01224FF48061764801F012FE01227F
:10063C004FF40061734801F00CFE00224FF480511E
:10064C00704801F006FE00224FF400516D4801F095
:10065C0000FED2E0002280216A4801F0FAFD01225E
:10066C004FF48071674801F0F4FD00224FF40071E3
:10067C00644801F0EEFD00224FF48061614801F006
:10068C00E8FD01224FF400615E4801F0E2FD00221A
:10069C004FF480515B4801F0DCFD00224FF4005117
:1006AC00584801F0D6FDA8E000228021554801F001
:1006BC00D0FD01224FF48071524801F0CAFD002296
:1006CC004FF400714F4801F0C4FD00224FF48061DB
:1006DC004C4801F0BEFD00224FF40061494801F086
:1006EC00B8FD00224FF48051464801F0B2FD0022C3
:1006FC004FF40051434801F0ACFD7EE00022802114
:10070C00404801F0A6FD00224FF480713D4801F0F5
:10071C00A0FD00224FF400713A4801F09AFD01222D
:10072C004FF48061374801F094FD01224FF40061D1
:10073C00344801F08EFD01224FF48051314801F014
:10074C0088FD01224FF400512E4801F082FD54E047
:10075C00002280212B4801F07CFD00224FF4807197
:10076C00284801F076FD00224FF40071254801F075
:10077C0070FD00224FF48061224801F06AFD0022D6
:10078C004FF400611F4801F064FD00224FF48051CA
:10079C001C4801F05EFD00224FF40051194801F095
:1007AC0058FD2AE000228021164801F052FD00225B
:1007BC004FF48071134801F04CFD00224FF400718E
:1007CC00104801F046FD00224FF480610D4801F005
:1007DC0040FD01224FF400610A4801F03AFD00226D
:1007EC004FF48051074801F034FD00224FF40051C2
:1007FC00044801F02EFD00E000BF00BF0837BD46E5
:10080C0080BD00BF0008014080B582B000AF7860A9
:10081C007B68092B00F2808101A252F823F000BF03
:10082C00550800089D080008E50800082D09000877
:10083C0075090008BD090008050A00084D0A0008E2
:10084C00950A0008DD0A000800220121B54801F0D4
:10085C0000FD00220221B34801F0FBFC0022042120
:10086C00B04801F0F6FC00220821AE4801F0F1FC82
:10087C0000221021AB4801F0ECFC00222021A948F9
:10088C0001F0E7FC01224021A64801F0E2FC44E122
:10089C0001220121A34801F0DCFC00220221A14825
:1008AC0001F0D7FC002204219E4801F0D2FC012269
:1008BC0008219C4801F0CDFC01221021994801F03F
:1008CC00C8FC01222021974801F0C3FC01224021E1
:1008DC00944801F0BEFC20E100220121914801F076
:1008EC00B8FC002202218F4801F0B3FC0122042144
:1008FC008C4801F0AEFC002208218A4801F0A9FCCA
:10090C0000221021874801F0A4FC012220218548F7
:10091C0001F09FFC00224021824801F09AFCFCE08F
:10092C00002201217F4801F094FC002202217D4825
:10093C0001F08FFC002204217A4801F08AFC00228D
:10094C000821784801F085FC01221021754801F03E
:10095C0080FC01222021734801F07BFC0022402105
:10096C00704801F076FCD8E0012201216D4801F0BD
:10097C0070FC002202216B4801F06BFC0022042168
:10098C00684801F066FC01220821664801F061FC10
:10099C0001221021634801F05CFC002220216148F7
:1009AC0001F057FC002240215E4801F052FCB4E0FB
:1009BC00002201215B4801F04CFC01220221594824
:1009CC0001F047FC00220421564801F042FC0022B1
:1009DC000821544801F03DFC01221021514801F03E
:1009EC0038FC002220214F4801F033FC002240212A
:1009FC004C4801F02EFC90E000220121494801F006
:100A0C0028FC01220221474801F023FC002204218A
:100A1C00444801F01EFC00220821424801F019FC58
:100A2C00002210213F4801F014FC002220213D48F7
:100A3C0001F00FFC002240213A4801F00AFC6CE066
:100A4C0000220121374801F004FC00220221354824
:100A5C0001F0FFFB00220421324801F0FAFB0122D5
:100A6C000821304801F0F5FB012210212D4801F03E
:100A7C00F0FB012220212B4801F0EBFB012240214D
:100A8C00284801F0E6FB48E000220121254801F04E
:100A9C00E0FB00220221234801F0DBFB00220421B1
:100AAC00204801F0D6FB002208211E4801F0D1FBA2
:100ABC00002210211B4801F0CCFB002220211948F8
:100ACC0001F0C7FB00224021164801F0C2FB24E0D4
:100ADC0000220121134801F0BCFB00220221114825
:100AEC0001F0B7FB002204210E4801F0B2FB0022FA
:100AFC0008210C4801F0ADFB01221021094801F03E
:100B0C00A8FB00222021074801F0A3FB0022402172
:100B1C00044801F09EFB00E000BF00BF0837BD4653
:100B2C0080BD00BF000C014080B582B000AF786082
:100B3C007B68002B03D07B68012B22D043E0002282
:100B4C004FF48041224801F084FB01224FF4004114
:100B5C001F4801F07EFB002280211E4801F079FB2A
:100B6C0001224FF480511B4801F073FB1A4B1B6898
:100B7C001846FFF749FE194B1B681846FFF778FC1F
:100B8C0021E001224FF48041114801F062FB002268
:100B9C004FF400410E4801F05CFB012280210D480E
:100BAC0001F057FB00224FF480510A4801F051FB31
:100BBC00094B5B681846FFF727FE084B5B68184625
:100BCC00FFF756FC00BF00BF0837BD4680BD00BF15
:100BDC0000080140000C0140F0000020E80000205B
:100BEC0080B500AF074B1B68012B02D100F00CF84D
:100BFC0005E0044B1B68012B01D000F075F800BF19
:100C0C0080BD00BF4800002080B500AF304B1B6892
:100C1C00092B06DC2F4B00221A602D4B1B682D4A2A
:100C2C0053602B4B1B68092B18DD294B1B682A4A78
:100C3C0082FB03129210DB17D31A264A1360244B43
:100C4C001968254B83FB01239A10CB17D21A134634
:100C5C009B0013445B00CA1A1E4B5A601F4B1B6847
:100C6C00092B06DC1E4B00221A601C4B1B681C4A0D
:100C7C0053601A4B1B68092B18DD184B1B68164A5E
:100C8C0082FB03129210DB17D31A154A1360134B15
:100C9C001968114B83FB01239A10CB17D21A1346F8
:100CAC009B0013445B00CA1A0D4B5A600D4B1B681A
:100CBC005A1C0C490A601846FFF736FF094B1B6893
:100CCC00012B02DD074B00221A6000BF80BD00BF64
:100CDC0000010020E8000020676666660401002021
:100CEC00F0000020E400002080B500AF4D4B002246
:100CFC001A604D4B1B684B4A53604B4B1B68022BC5
:100D0C0027D14A4B1B68092B06DC494B00221A6081
:100D1C00464B1B68464A5360444B1B68092B18DD35
:100D2C00424B1B68434A82FB03129210DB17D31A07
:100D3C003F4A13603D4B19683E4B83FB01239A10CD
:100D4C00CB17D21A13469B0013445B00CA1A384BBC
:100D5C005A60354B1B68032B27D1374B1B68092B6B
:100D6C0006DC334B00221A60334B1B68304A53604D
:100D7C00314B1B68092B18DD2F4B1B682D4A82FB4E
:100D8C0003129210DB17D31A294A13602A4B1968E5
:100D9C00284B83FB01239A10CB17D21A13469B00C6
:100DAC0013445B00CA1A224B5A601F4B1B68042B5E
:100DBC0027D1224B1B68092B06DC1D4B00221A6025
:100DCC001E4B1B681A4A5360184B1B68092B18DD05
:100DDC001A4B1B68174A82FB03129210DB17D31AAB
:100DEC00134A1360154B1968124B83FB01239A109D
:100DFC00CB17D21A13469B0013445B00CA1A0C4B38
:100E0C005A600F4B1B685A1C0D490A601846FFF7B5
:100E1C008BFE0B4B1B68012B02DD094B00221A6069
:100E2C0000BF80BDE8000020480000203C000020EE
:100E3C00F000002067666666400000204400002039
:100E4C00E400002080B400AF064B1B68013B054A50
:100E5C001360054B1B68013B034A136000BFBD4682
:100E6C0080BC7047000100200401002080B500AF59
:100E7C00AD4B1B680D3B042B00F2538101A252F8C1
:100E8C0023F000BFA50E0008150F00088D0F0008F9
:100E9C00251000089B10000801220221A34801F034
:100EAC00D8F901220421A14801F0D3F9012208212B
:100EBC009E4801F0CEF9012210219C4801F0C9F99D
:100ECC0001222021994801F0C4F9012240219748C0
:100EDC0001F0BFF9944B0E221A60954B1B68954A92
:100EEC001360954B1B68954A1360914B1B6832221B
:100EFC0002FB03F3924A13608F4B1B68322202FBF6
:100F0C0003F3904A136028E100220221874801F084
:100F1C00A0F901220421854801F09BF90122082146
:100F2C00824801F096F901221021804801F091F9D4
:100F3C00012220217D4801F08CF9002240217B48C0
:100F4C0001F087F97E4B1B68013B7D4A13607D4B9A
:100F5C001B68013B7B4A13607A4B1B68002B00F328
:100F6C00F580714B0F221A60774B1B68322202FB03
:100F7C0003F3744A1360744B1B68704A1360E5E00A
:100F8C0000220221694801F064F90122042167481A
:100F9C0001F05FF901220821644801F05AF901229D
:100FAC001021624801F055F9002220215F4801F020
:100FBC0050F9012240215D4801F04BF9604B1B6850
:100FCC00013B5F4A13605F4B1B68013B5D4A13603A
:100FDC005B4B1B68002B00F3BB805A4B1B68002B30
:100FEC0000F3B680504B10221A60534B1B68322210
:100FFC0002FB03F3524A13604D4B1B68322202FB77
:10100C0003F3504A13604C4B1B684A4A1360484B1D
:10101C001B684A4A13609BE001220221434801F0FD
:10102C0018F901220421414801F013F9002208218A
:10103C003E4801F00EF9002210213C4801F009F95C
:10104C0001222021394801F004F9012240213748BE
:10105C0001F0FFF83A4B1B68013B394A1360394BDE
:10106C001B68013B374A1360354B1B68002B71DC46
:10107C002D4B11221A60344B1B68322202FB03F3F6
:10108C002F4A1360304B1B682A4A136062E001221E
:10109C000221264801F0DDF800220421234801F04A
:1010AC00D8F801220821214801F0D3F800221021A0
:1010BC001E4801F0CEF8012220211C4801F0C9F88D
:1010CC0001224021194801F0C4F81D4B1B68013B5B
:1010DC001B4A13601B4B1B68013B1A4A1360184BCD
:1010EC001B68002B38DC174B1B68002B34DC0E4BB9
:1010FC000E221A600E4B1B68322202FB03F3104ABD
:10110C0013600D4B1B68322202FB03F30D4A136074
:10111C00074B1B68074A1360074B1B68074A136091
:10112C001AE000BF19E000BF1801002000080140C0
:10113C003C0000200001002044000020040100209D
:10114C00F8000020FC0000204000002000BF04E05C
:10115C0000BF02E000BF00E000BF00BF80BD00BFC9
:10116C0080B500AF012204210D4801F072F8012274
:10117C0008210B4801F06DF801222021084801F0EC
:10118C0068F801224021064801F063F80221044866
:10119C0001F077F81021024801F073F800BF80BD10
:1011AC000008014080B500AF012202210D4801F07A
:1011BC0050F8012208210B4801F04BF801221021B4
:1011CC00084801F046F801224021064801F041F898
:1011DC000421044801F055F82021024801F051F88F
:1011EC0000BF80BD0008014080B500AF0122042182
:1011FC000D4801F02EF8012202210B4801F029F8CC
:10120C0001222021084801F024F80122102106486F
:10121C0001F01FF80821044801F033F8402102487E
:10122C0001F02FF800BF80BD0008014080B500AF71
:10123C00FEF7AAFF0346002B3AD01E4B1B68013366
:10124C001C4A13601B4B1B68042B02DD194B01223B
:10125C001A60184B1B68032B0BD1174B1B68012B07
:10126C0003D1164B1B68164A1360134B00221A60ED
:10127C001EE0104B1B68042B0BD10F4B1B68012B72
:10128C0003D1104B1B68104A13600B4B00221A60E1
:10129C000EE0084B1B68012B0AD1074B1B68012B76
:1012AC0003D10A4B1B680A4A1360034B00221A60D5
:1012BC0000BF80BD48000020080100200C01002068
:1012CC003C000020100100204000002014010020F0
:1012DC004400002080B500AF034B1B68012B01D1EB
:1012EC00FFF7C4FD00BF80BD4800002080B500AFF3
:1012FC00034B1B68022B01D1FFF732FF00BF80BDEF
:10130C004800002080B500AF034B1B68032B01D1B4
:10131C00FFF748FF00BF80BD4800002080B500AF3C
:10132C00034B1B68042B01D1FFF75EFF00BF80BD90
:10133C004800002080B500AF4E4B1B68042B63D0D7
:10134C00042B00F39480022B02D0032B2ED08EE0C2
:10135C00494B00221A60494B1B68494A1360FEF73F
:10136C0025FF0346002B0ED0434B01221A60434B42
:10137C001B680133414A1360404B1B68632B02DD31
:10138C003E4B01221A60FEF723FF0346002B69D067
:10139C00394B00221A603A4B00221A60374B1A68FC
:1013AC00384B1B68D31A384A13605BE0324B00226F
:1013BC001A60344B1B68354A1360FEF7F7FE034680
:1013CC00002B0ED02C4B01221A602E4B1B680133C4
:1013DC002C4A13602B4B1B68632B02DD294B01221B
:1013EC001A60FEF7F5FE0346002B3DD0224B00227F
:1013FC001A60264B00221A60234B1A68214B1B687B
:10140C0013441E4A13602FE01B4B00221A601E4B24
:10141C001B681F4A1360FEF7C9FE0346002B0ED053
:10142C00194B1B680133184A1360134B01221A60C5
:10143C00154B1B68632B02DD134B01221A60FEF760
:10144C00C7FE0346002B11D00B4B00221A60104B29
:10145C0000221A600C4B1A680A4B1B681344074A8B
:10146C00136003E000BF02E000BF00E000BF00BF5C
:10147C0080BD00BF48000020080100203C00002077
:10148C000C0100204000002044000020100100202E
:10149C001401002080B500AF4FF48071024800F0B9
:1014AC00F0FE00BF80BD00BF000C014080B500AF56
:1014BC0000F0CEFB00F094F83A4801F027FB00F066
:1014CC0017F900F0C9F801224FF48071364800F08A
:1014DC00C0FE01220221354800F0BBFE012204218E
:1014EC00324800F0B6FE01220821304800F0B1FE6F
:1014FC00012210212D4800F0ACFE012220212B48A6
:10150C0000F0A7FE01224021284800F0A2FEFEF7C1
:10151C005BFF274B01221A60264B0D221A6000F04C
:10152C0065F90346244A136000224FF47A7123486C
:10153C0000F00EFA0A224FF47A71214800F008FAF2
:10154C004FF4FA724FF47A711E4800F001FA4FF41E
:10155C00FA724FF47A711C4800F0FAF94FF4FA72EF
:10156C004FF47A71194800F0F3F94FF47A724FF492
:10157C007A71174800F0ECF9FA224FF47A71154899
:10158C0000F0E6F964224FF47A71134800F0E0F9A8
:10159C000A224FF47A71114800F0DAF900F010FACF
:1015AC00FCE700BF2C010020000C014000080140AA
:1015BC00480000201801002078010020A114000828
:1015CC00E1120008F9120008111300082913000891
:1015DC00510E0008ED0B00083912000841130008E9
:1015EC0080B590B000AF07F11803282200211846EF
:1015FC0001F052FE3B1D00221A605A609A60DA60BC
:10160C001A610223BB610123BB621023FB6200231E
:10161C007B6307F11803184600F04CFE0346002BC1
:10162C0001D000F0DEF80F237B600023BB600023A9
:10163C00FB6000233B6100237B613B1D00211846AE
:10164C0001F0B8F80346002B01D000F0CAF800BF37
:10165C004037BD4680BD000080B586B000AF07F1B5
:10166C00080300221A605A609A60DA603B46002236
:10167C001A605A601D4B4FF080421A601B4B41F6AA
:10168C003F725A60194B00229A60184B0922DA609B
:10169C00164B00221A61154B00229A61134801F077
:1016AC00E5F90346002B01D000F09BF84FF4805372
:1016BC00BB6007F1080319460C4801F063FB0346B5
:1016CC00002B01D000F08DF800233B6000237B60E1
:1016DC003B461946054801F03BFD0346002B01D063
:1016EC0000F07FF800BF1837BD4680BD2C010020EC
:1016FC0080B586B000AF07F1080300221A605A606B
:10170C009A60DA60294B9B69284A43F00403936181
:10171C00264B9B6903F004037B607B68234B9B691E
:10172C00224A43F008039361204B9B6903F00803A2
:10173C003B603B6800224FF6FE711D4800F089FDAE
:10174C00002241F2FF111B4800F083FD4FF6FE739F
:10175C00BB600123FB6000233B6102237B6107F12B
:10176C0008031946124800F0E3FB41F2FF13BB607B
:10177C000123FB6000233B6102237B6107F108031B
:10178C0019460C4800F0D4FB4FF46063BB60002397
:10179C00FB6001233B6107F108031946054800F083
:1017AC00C7FB00BF1837BD4680BD00BF001002400C
:1017BC0000080140000C014080B582B000AF786099
:1017CC007B681B68B3F1804F07D1FEF713FDFEF762
:1017DC005FFDFEF7ABFD00F019F800BF0837BD4602
:1017EC0080BD80B400AF72B600BFFEE780B582B09A
:1017FC0000AF042001F040FD03467B607B680022B3
:10180C001A607B6818460837BD4680BD80B400AFAF
:10181C00244B1B681B68002B3FD0234B1B880133C8
:10182C009AB2214B1A801F4B1B681B685B68002BFC
:10183C0034D01D4B1B881A461A4B1B681B685B68FF
:10184C009A420FD2174B1B681B685A68164B1B88A1
:10185C001946144B1B681B68521A5A60124B002213
:10186C001A801BE0104B1A880E4B1B681B685B68B8
:10187C009BB2D31A9AB20C4B1A800A4B1B681B688A
:10188C001A7B084B1B681B680132D2B21A73054BCA
:10189C001B681B6800225A6000E000BFBD4680BC7C
:1018AC00704700BF780100207601002080B487B01B
:1018BC0000AF7860254B1B681B68002B05D1234BB0
:1018CC001B687A681A607B683BE0204B1B681B68BE
:1018DC007B6100233B617B685B68FB6009E07B6993
:1018EC005B68FA68D31AFB607B693B617B691B6997
:1018FC007B617B69002B04D07B695B68FA689A4238
:10190C00EDD27B68FA685A607B687A691A613B6928
:10191C00002B04D10D4B1B687A681A6010E03B69F0
:10192C001B69002B09D07B695A68FB68D21A7B694A
:10193C005A603B697A681A6102E03B697A681A61FD
:10194C007B6818461C37BD4680BC70477801002068
:10195C0080B586B000AFF860B9607A60154B1B8813
:10196C00282B03D9144B01221A7020E0142001F00B
:10197C0083FC03467B617B69FA681A600F4B1B88FA
:10198C001A46BB681A447B695A607B697A689A600C
:10199C007B6900221A737B6900221A617869FFF750
:1019AC0085FF044B1B8801339AB2024B1A801837FF
:1019BC00BD4680BD740100201C0100207601002072
:1019CC0080B582B000AF2B4B1B681B68002B4AD034
:1019DC00284B1B681B685B68002B44D1254B1B688C
:1019EC001B681A7B234B1B681B68013AD2B21A7313
:1019FC00204B1B681B687B601E4B1B681A681D4BB9
:101A0C001B6812691A607B6800221A617B689A68ED
:101A1C007B685A607B681B6898477B689B68002BC7
:101A2C0003D07868FFF742FF20E07B689B68002BAF
:101A3C0005D0104B1B681B681B7B002B15D17B68DA
:101A4C009B68002B12D00B4B1B681B681B7B002B5D
:101A5C000CD1786801F018FC074B1B88013B9AB23B
:101A6C00054B1A8002E000BF00E000BF0837BD46FE
:101A7C0080BD00BF780100207401002080B485B0C7
:101A8C0000AF154B9B69144A43F001039361124B51
:101A9C009B6903F00103BB60BB680F4BDB690E4A0B
:101AAC0043F08053D3610C4BDB6903F080537B60B4
:101ABC007B680A4B5B68FB60FB6823F0E063FB60B0
:101ACC00FB6843F08063FB60044AFB68536000BF13
:101ADC001437BD4680BC7047001002400000014026
:101AEC0080B584B000AF78607B681B68B3F1804F21
:101AFC0013D10C4BDB690B4A43F00103D361094B47
:101B0C00DB6903F00103FB60FB68002200211C2051
:101B1C0000F0D7F91C2000F0F0F900BF1037BD46DB
:101B2C0080BD00BF0010024080B400AFFEE780B45F
:101B3C0000AFFEE780B400AFFEE780B400AFFEE775
:101B4C0080B400AFFEE780B400AF00BFBD4680BCE0
:101B5C00704780B400AF00BFBD4680BC704780B4F6
:101B6C0000AF00BFBD4680BC704780B500AF00F031
:101B7C00B5F800BF80BD000080B500AF024801F091
:101B8C0011F800BF80BD00BF2C01002080B586B0CD
:101B9C0000AF7860144A154BD31A7B617B693B61AB
:101BAC00134B1B68002B02D1114B124A1A60104BBD
:101BBC001A687B6813443A699A4207D201F032FBE7
:101BCC0003460C221A604FF0FF3309E0084B1B68E8
:101BDC00FB60074B1A687B681344054A1360FB686B
:101BEC0018461837BD4680BD0028002000040000B0
:101BFC00200100209001002080B400AF00BFBD4642
:101C0C0080BC7047FFF7F8FF0B480C490C4A0023C7
:101C1C0002E0D458C4500433C4188C42F9D3094A96
:101C2C00094C002301E013600432A242FBD301F003
:101C3C00FFFAFFF73BFC704700000020BC000020BF
:101C4C0080340008BC00002090010020FEE700005A
:101C5C0080B500AF084B1B68074A43F010031360B4
:101C6C00032000F023F90F2000F008F8FFF706FF1F
:101C7C000023184680BD00BF0020024080B582B012
:101C8C0000AF7860124B1A68124B1B7819464FF450
:101C9C007A73B3FBF1F3B2FBF3F3184600F03BF9A4
:101CAC000346002B01D001230EE07B680F2B0AD8D2
:101CBC00002279684FF0FF3000F003F9064A7B6888
:101CCC001360002300E0012318460837BD4680BD91
:101CDC004C000020540000205000002080B400AFC5
:101CEC00054B1B781A46054B1B681344034A1360BB
:101CFC0000BFBD4680BC7047540000207C01002012
:101D0C0080B400AF024B1B681846BD4680BC7047C0
:101D1C007C01002080B485B000AF78607B6803F054
:101D2C000703FB600C4BDB68BB60BA684FF6FF0324
:101D3C001340BB60FB681A02BB68134343F0BF63DC
:101D4C0043F40033BB60044ABB68D36000BF143754
:101D5C00BD4680BC704700BF00ED00E080B400AF12
:101D6C00044BDB681B0A03F007031846BD4680BC16
:101D7C00704700BF00ED00E080B483B000AF0346B5
:101D8C00FB7197F90730002B0BDBFB7903F01F027B
:101D9C00064997F907305B09012000FA02F241F875
:101DAC00232000BF0C37BD4680BC704700E100E02B
:101DBC0080B483B000AF03463960FB7197F90730EC
:101DCC00002B0ADB3B68DAB20C4997F90730120199
:101DDC00D2B20B4483F800230AE03B68DAB208491C
:101DEC00FB7903F00F03043B1201D2B20B441A76B9
:101DFC0000BF0C37BD4680BC704700BF00E100E05F
:101E0C0000ED00E080B489B000AFF860B9607A6092
:101E1C00FB6803F00703FB61FB69C3F10703042BA9
:101E2C0028BF0423BB61FB690433062B02D9FB6971
:101E3C00033B00E000237B614FF0FF32BB6902FAE9
:101E4C0003F3DA43BB681A407B699A404FF0FF31C9
:101E5C007B6901FA03F3D9437B680B4013431846A3
:101E6C002437BD4680BC704780B582B000AF786027
:101E7C007B68013BB3F1807F01D301230FE00A4A59
:101E8C007B68013B53600F214FF0FF30FFF790FF51
:101E9C00054B00229A60044B07221A600023184657
:101EAC000837BD4680BD00BF10E000E080B582B0B1
:101EBC0000AF78607868FFF72DFF00BF0837BD468C
:101ECC0080BD80B586B000AF0346B9607A60FB7305
:101EDC0000237B61FFF742FF78617A68B968786903
:101EEC00FFF790FF024697F90F3011461846FFF79F
:101EFC005FFF00BF1837BD4680BD80B582B000AF14
:101F0C000346FB7197F907301846FFF735FF00BF02
:101F1C000837BD4680BD80B582B000AF7860786868
:101F2C00FFF7A2FF034618460837BD4680BD0000E8
:101F3C0080B48BB000AF7860396000237B620023E3
:101F4C003B6248E101227B6A02FA03F3FB613B68C6
:101F5C001B68FA691340BB61BA69FB699A4240F08D
:101F6C0037813B685B68A34A93425ED0A14A934297
:101F7C0075D8A14A934258D09F4A93426FD89F4A32
:101F8C00934252D09D4A934269D89D4A93424CD079
:101F9C009B4A934263D89B4A934246D0994A9342B8
:101FAC005DD8122B2AD8122B59D801A252F823F043
:101FBC0037200008112000082320000865200008A5
:101FCC006B2000086B2000086B2000086B200008B9
:101FDC006B2000086B2000086B2000086B200008A9
:101FEC006B2000086B2000086B2000086B20000899
:101FFC006B200008192000082D200008824A93420B
:10200C0013D02CE03B68DB683B6229E03B68DB6863
:10201C0004333B6224E03B68DB6808333B621FE01F
:10202C003B68DB680C333B621AE03B689B68002B17
:10203C0002D104233B6213E03B689B68012B05D162
:10204C0008233B627B68FA691A6109E008233B624A
:10205C007B68FA695A6103E000233B6200E000BF31
:10206C00BB69FF2B01D87B6801E07B6804337B6183
:10207C00BB69FF2B02D87B6A9B0002E07B6A083BA2
:10208C009B003B617B691A680F213B6901FA03F3E2
:10209C00DB431A40396A3B6901FA03F31A437B6943
:1020AC001A603B685B6803F08053002B00F0908053
:1020BC00564B9B69554A43F001039361534B9B6903
:1020CC0003F00103BB60BB68514A7B6A9B08023377
:1020DC0052F82330FB607B6A03F003039B000F2252
:1020EC0002FA03F3DB43FA681340FB607B68494A4E
:1020FC0093420DD07B68484A934207D07B68474A8D
:10210C00934201D1022304E0032302E0012300E007
:10211C0000237A6A02F0030292009340FA68134398
:10212C00FB603B497B6A9B080233FA6841F8232029
:10213C003B685B6803F48013002B06D0384B9A681D
:10214C003749BB6913438B6006E0354B9A68BB6912
:10215C00DB43334913408B603B685B6803F400132B
:10216C00002B06D02E4BDA682D49BB691343CB608C
:10217C0006E02B4BDA68BB69DB4329491340CB6083
:10218C003B685B6803F40033002B06D0244B5A6881
:10219C002349BB6913434B6006E0214B5A68BB696A
:1021AC00DB431F4913404B603B685B6803F480338F
:1021BC00002B06D01A4B1A681949BB6913430B60E4
:1021CC0006E0174B1A68BB69DB43154913400B60DB
:1021DC007B6A01337B623B681A687B6A22FA03F3E1
:1021EC00002B7FF4AFAE00BF00BF2C37BD4680BCC8
:1021FC00704700BF000032100000311000002210A8
:10220C0000002110000012100000111000100240FC
:10221C000000014000080140000C0140001001408A
:10222C000004014080B485B000AF78600B467B8021
:10223C007B689A687B881340002B02D00123FB73C8
:10224C0001E00023FB73FB7B18461437BD4680BCB2
:10225C00704780B483B000AF78600B467B80134628
:10226C007B707B78002B03D07A887B681A6103E043
:10227C007B881A047B681A6100BF0C37BD4680BC92
:10228C00704780B485B000AF78600B467B807B686C
:10229C00DB68FB607A88FB6813401A04FB68D9433F
:1022AC007B880B401A437B681A6100BF1437BD460C
:1022BC0080BC704780B586B000AF78607B68002B1F
:1022CC0001D101236CE27B681B6803F00103002B36
:1022DC0000F08780924B5B6803F00C03042B0CD04E
:1022EC008F4B5B6803F00C03082B12D18C4B5B6893
:1022FC0003F48033B3F5803F0BD1894B1B6803F497
:10230C000033002B6CD07B685B68002B68D10123F9
:10231C0046E27B685B68B3F5803F06D1804B1B6857
:10232C007F4A43F4803313602EE07B685B68002B9C
:10233C000CD17B4B1B687A4A23F480331360784BA7
:10234C001B68774A23F4802313601DE07B685B686D
:10235C00B3F5A02F0CD1724B1B68714A43F4802348
:10236C0013606F4B1B686E4A43F4803313600BE0B1
:10237C006B4B1B686A4A23F480331360684B1B68F1
:10238C00674A23F4802313607B685B68002B13D0AF
:10239C00FFF7B6FC386108E0FFF7B2FC02463B6978
:1023AC00D31A642B01D90323FAE15D4B1B6803F4A8
:1023BC000033002BF0D014E0FFF7A2FC386108E0EA
:1023CC00FFF79EFC02463B69D31A642B01D9032309
:1023DC00E6E1534B1B6803F40033002BF0D100E013
:1023EC0000BF7B681B6803F00203002B63D04C4BCF
:1023FC005B6803F00C03002B0BD0494B5B6803F0BC
:10240C000C03082B1CD1464B5B6803F48033002B68
:10241C0016D1434B1B6803F00203002B05D07B68DD
:10242C001B69012B01D00123BAE13D4B1B6823F042
:10243C00F8027B685B69DB00394913430B603AE0B7
:10244C007B681B69002B20D0364B01221A60FFF7EA
:10245C0057FC386108E0FFF753FC02463B69D31A7E
:10246C00022B01D903239BE12D4B1B6803F00203C4
:10247C00002BF0D02A4B1B6823F0F8027B685B69B9
:10248C00DB00274913430B6015E0264B00221A6032
:10249C00FFF736FC386108E0FFF732FC02463B6977
:1024AC00D31A022B01D903237AE11D4B1B6803F0CD
:1024BC000203002BF0D17B681B6803F00803002B90
:1024CC003AD07B689B69002B19D0174B01221A60FC
:1024DC00FFF716FC386108E0FFF712FC02463B6977
:1024EC00D31A022B01D903235AE10D4B5B6A03F07B
:1024FC000203002BF0D0012000F09AFA1CE00A4BEA
:10250C0000221A60FFF7FCFB38610FE0FFF7F8FBC5
:10251C0002463B69D31A022B08D9032340E100BFC2
:10252C000010024000004242800442429E4B5B6A13
:10253C0003F00203002BE9D17B681B6803F0040352
:10254C00002B00F0A6800023FB75974BDB6903F092
:10255C008053002B0DD1944BDB69934A43F080538D
:10256C00D361914BDB6903F08053BB60BB680123E3
:10257C00FB758E4B1B6803F48073002B18D18B4BAF
:10258C001B688A4A43F480731360FFF7B9FB386108
:10259C0008E0FFF7B5FB02463B69D31A642B01D95F
:1025AC000323FDE0814B1B6803F48073002BF0D0F8
:1025BC007B68DB68012B06D17B4B1B6A7A4A43F0A4
:1025CC00010313622DE07B68DB68002B0CD1764B8A
:1025DC001B6A754A23F001031362734B1B6A724A20
:1025EC0023F0040313621CE07B68DB68052B0CD121
:1025FC006D4B1B6A6C4A43F0040313626A4B1B6AF3
:10260C00694A43F0010313620BE0674B1B6A664A8D
:10261C0023F001031362644B1B6A634A23F0040327
:10262C0013627B68DB68002B15D0FFF769FB386100
:10263C000AE0FFF765FB02463B69D31A41F2883288
:10264C00934201D90323ABE0574B1B6A03F00203FF
:10265C00002BEED014E0FFF753FB38610AE0FFF7D4
:10266C004FFB02463B69D31A41F28832934201D99F
:10267C00032395E04C4B1B6A03F00203002BEED1B5
:10268C00FB7D012B05D1484BDB69474A23F0805376
:10269C00D3617B68DB69002B00F08180424B5B6867
:1026AC0003F00C03082B61D07B68DB69022B46D14D
:1026BC003F4B00221A60FFF723FB386108E0FFF75D
:1026CC001FFB02463B69D31A022B01D9032367E097
:1026DC00354B1B6803F00073002BF0D17B681B6A31
:1026EC00B3F5803F08D1304B5B6823F400327B6834
:1026FC009B682D4913434B602B4B5B6823F474127E
:10270C007B68196A7B685B6A0B43274913434B60F0
:10271C00274B01221A60FFF7F3FA386108E0FFF744
:10272C00EFFA02463B69D31A022B01D9032337E097
:10273C001D4B1B6803F00073002BF0D02FE01C4BDB
:10274C0000221A60FFF7DCFA386108E0FFF7D8FACC
:10275C0002463B69D31A022B01D9032320E0124B0A
:10276C001B6803F00073002BF0D118E07B68DB6969
:10277C00012B01D1012313E00B4B5B68FB60FB6861
:10278C0003F480327B681B6A9A4206D1FB6803F41F
:10279C0070127B685B6A9A4201D0012300E000232F
:1027AC0018461837BD4680BD00100240007000402E
:1027BC006000424280B584B000AF786039607B68BD
:1027CC00002B01D10123D0E06A4B1B6803F00703F7
:1027DC003A689A4210D9674B1B6823F00702654987
:1027EC003B6813430B60634B1B6803F007033A68A9
:1027FC009A4201D00123B8E07B681B6803F0020306
:10280C00002B20D07B681B6803F00403002B05D041
:10281C00594B5B68584A43F4E06353607B681B6810
:10282C0003F00803002B05D0534B5B68524A43F46A
:10283C0060535360504B5B6823F0F0027B689B68DD
:10284C004D4913434B607B681B6803F00103002B5D
:10285C0040D07B685B68012B07D1474B1B6803F4A6
:10286C000033002B15D101237FE07B685B68022BC2
:10287C0007D1414B1B6803F00073002B09D10123D6
:10288C0073E03D4B1B6803F00203002B01D10123C5
:10289C006BE0394B5B6823F003027B685B6836495D
:1028AC0013434B60FFF72CFAF8600AE0FFF728FAA5
:1028BC000246FB68D31A41F28832934201D90323B2
:1028CC0053E02D4B5B6803F00C027B685B689B004C
:1028DC009A42EBD1274B1B6803F007033A689A42E4
:1028EC0010D2244B1B6823F0070222493B68134388
:1028FC000B60204B1B6803F007033A689A4201D027
:10290C00012332E07B681B6803F00403002B08D022
:10291C00194B5B6823F4E0627B68DB681649134350
:10292C004B607B681B6803F00803002B09D0124B2B
:10293C005B6823F460527B681B69DB000E49134310
:10294C004B6000F021F802460B4B5B681B0903F04F
:10295C000F030A49CB5C22FA03F3094A1360094BB3
:10296C001B681846FFF78AF9002318461037BD4636
:10297C0080BD00BF0020024000100240543400080B
:10298C004C0000205000002080B487B000AF002322
:10299C00FB600023BB6000237B6100237B60002372
:1029AC003B611E4B5B68FB60FB6803F00C03042B64
:1029BC0002D0082B03D027E0194B3B6127E0FB68C2
:1029CC009B0C03F00F03174AD35C7B60FB6803F48A
:1029DC008033002B10D0114B5B685B0C03F00103B0
:1029EC00114AD35CBB607B680D4A02FB03F2BB68E7
:1029FC00B2FBF3F37B6104E07B680C4A02FB03F34C
:102A0C007B617B693B6102E0054B3B6100BF3B692D
:102A1C0018461C37BD4680BC704700BF00100240F2
:102A2C0000127A00643400087434000800093D0078
:102A3C0080B485B000AF78600A4B1B680A4AA2FBD1
:102A4C0003235B0A7A6802FB03F3FB6000BFFB689D
:102A5C005A1EFA60002BF9D100BF00BF1437BD46D7
:102A6C0080BC70474C000020D34D621080B582B002
:102A7C0000AF78607B68002B01D1012341E07B68BB
:102A8C0093F83D30DBB2002B06D17B68002283F833
:102A9C003C207868FFF724F87B68022283F83D20FD
:102AAC007B681A687B6804331946104600F056FAA6
:102ABC007B68012283F846207B68012283F83E2044
:102ACC007B68012283F83F207B68012283F8402039
:102ADC007B68012283F841207B68012283F8422025
:102AEC007B68012283F843207B68012283F8442011
:102AFC007B68012283F845207B68012283F83D2006
:102B0C00002318460837BD4680BD000080B485B050
:102B1C0000AF78607B6893F83D30DBB2012B01D0BD
:102B2C00012335E07B68022283F83D207B681B681B
:102B3C00DA687B681B6842F00102DA607B681B680C
:102B4C00164A934209D07B681B68B3F1804F04D0BE
:102B5C007B681B68124A934211D17B681B689B6887
:102B6C0003F00703FB60FB68062B10D07B681B6827
:102B7C001A687B681B6842F001021A6007E07B68E8
:102B8C001B681A687B681B6842F001021A600023FC
:102B9C0018461437BD4680BC704700BF002C01405E
:102BAC000004004080B584B000AF78607B681B687F
:102BBC00DB68FB607B681B681B69BB60BB6803F050
:102BCC000203002B20D0FB6803F00203002B1BD068
:102BDC007B681B686FF002021A617B6801221A770E
:102BEC007B681B689B6903F00303002B03D0786898
:102BFC0000F098F905E0786800F08BF9786800F03F
:102C0C009AF97B6800221A77BB6803F00403002B47
:102C1C0020D0FB6803F00403002B1BD07B681B68DF
:102C2C006FF004021A617B6802221A777B681B68BA
:102C3C009B6903F44073002B03D0786800F072F9A1
:102C4C0005E0786800F065F9786800F074F97B6845
:102C5C0000221A77BB6803F00803002B20D0FB6816
:102C6C0003F00803002B1BD07B681B686FF0080275
:102C7C001A617B6804221A777B681B68DB6903F096
:102C8C000303002B03D0786800F04CF905E078685A
:102C9C0000F03FF9786800F04EF97B6800221A7753
:102CAC00BB6803F01003002B20D0FB6803F010036B
:102CBC00002B1BD07B681B686FF010021A617B68BD
:102CCC0008221A777B681B68DB6903F44073002BBE
:102CDC0003D0786800F026F905E0786800F019F95F
:102CEC00786800F028F97B6800221A77BB6803F03B
:102CFC000103002B0CD0FB6803F00103002B07D061
:102D0C007B681B686FF001021A617868FEF754FD4E
:102D1C00BB6803F08003002B0CD0FB6803F080032E
:102D2C00002B07D07B681B686FF080021A617868F3
:102D3C0000F06FFABB6803F04003002B0CD0FB686B
:102D4C0003F04003002B07D07B681B686FF0400238
:102D5C001A61786800F0F8F8BB6803F02003002BC8
:102D6C000CD0FB6803F02003002B07D07B681B689A
:102D7C006FF020021A61786800F042FA00BF103739
:102D8C00BD4680BD80B584B000AF7860396000234B
:102D9C00FB737B6893F83C30012B01D10223B4E028
:102DAC007B68012283F83C207B68022283F83D205B
:102DBC007B681B689B68BB60BB6823F07703BB60B8
:102DCC00BB6823F47F43BB607B681B68BA689A605E
:102DDC003B681B68B3F5005F3ED0B3F5005F00F2B3
:102DEC008780B3F5805F00F08680B3F5805F7FD875
:102DFC00702B1AD0702B7BD8602B50D0602B77D8CF
:102E0C00502B3CD0502B73D8402B58D0402B6FD824
:102E1C00302B64D0302B6BD8202B60D0202B67D874
:102E2C00002B5CD0102B5AD062E07B6818683B6892
:102E3C0099683B685A683B68DB6800F06AF97B6804
:102E4C001B689B68BB60BB6843F07703BB607B6807
:102E5C001B68BA689A604FE07B6818683B68996891
:102E6C003B685A683B68DB6800F053F97B681B6869
:102E7C009A687B681B6842F480429A603CE07B68ED
:102E8C0018683B6859683B68DB681A4600F0CAF85A
:102E9C007B681B685021184600F021F92CE07B68F8
:102EAC0018683B6859683B68DB681A4600F0E8F81C
:102EBC007B681B686021184600F011F91CE07B68E8
:102ECC0018683B6859683B68DB681A4600F0AAF83A
:102EDC007B681B684021184600F001F90CE07B6808
:102EEC001A683B681B681946104600F0F8F803E0B6
:102EFC000123FB7300E000BF7B68012283F83D20B7
:102F0C007B68002283F83C20FB7B18461037BD46BB
:102F1C0080BD80B483B000AF786000BF0C37BD4675
:102F2C0080BC704780B483B000AF786000BF0C37B2
:102F3C00BD4680BC704780B483B000AF786000BFE2
:102F4C000C37BD4680BC704780B483B000AF78604E
:102F5C0000BF0C37BD4680BC7047000080B485B004
:102F6C0000AF786039607B681B68FB607B682B4A1C
:102F7C00934207D07B68B3F1804F03D07B68284A1B
:102F8C00934208D1FB6823F07003FB603B685B68DD
:102F9C00FA681343FB607B68204A934207D07B6836
:102FAC00B3F1804F03D07B681D4A934208D1FB6874
:102FBC0023F44073FB603B68DB68FA681343FB60E7
:102FCC00FB6823F080023B685B691343FB607B6802
:102FDC00FA681A603B689A687B68DA623B681A6820
:102FEC007B689A627B680D4A934203D13B681A69ED
:102FFC007B681A637B6801225A617B681B6903F04A
:10300C000103002B05D07B681B6923F001027B6850
:10301C001A6100BF1437BD4680BC7047002C0140BC
:10302C000004004080B487B000AFF860B9607A60EB
:10303C00FB681B6A7B61FB681B6A23F00102FB685F
:10304C001A62FB689B693B613B6923F0F0033B61AF
:10305C007B681B013A6913433B617B6923F00A03CC
:10306C007B617A69BB6813437B61FB683A699A613F
:10307C00FB687A691A6200BF1C37BD4680BC70477A
:10308C0080B487B000AFF860B9607A60FB681B6AE7
:10309C007B61FB681B6A23F01002FB681A62FB68F9
:1030AC009B693B613B6923F470433B617B681B0369
:1030BC003A6913433B617B6923F0A0037B61BB68D6
:1030CC001B017A6913437B61FB683A699A61FB685F
:1030DC007A691A6200BF1C37BD4680BC704780B449
:1030EC0085B000AF786039607B689B68FB60FB68DB
:1030FC0023F07003FB603A68FB68134343F007034B
:10310C00FB607B68FA689A6000BF1437BD4680BCD0
:10311C00704780B487B000AFF860B9607A603B60EC
:10312C00FB689B687B617B6923F47F437B613B6815
:10313C001A027B681A43BB6813437A6913437B6199
:10314C00FB687A699A6000BF1C37BD4680BC70472B
:10315C0080B485B000AF786039607B6893F83C3000
:10316C00012B01D1022341E07B68012283F83C2032
:10317C007B68022283F83D207B681B685B68FB60E0
:10318C007B681B689B68BB60FB6823F07003FB606B
:10319C003B681B68FA681343FB607B681B68FA6822
:1031AC005A607B681B68144A934209D07B681B6881
:1031BC00B3F1804F04D07B681B68104A93420CD14A
:1031CC00BB6823F08003BB603B685B68BA68134341
:1031DC00BB607B681B68BA689A607B68012283F8C5
:1031EC003D207B68002283F83C20002318461437CE
:1031FC00BD4680BC704700BF002C0140000400405D
:10320C0080B483B000AF786000BF0C37BD4680BC83
:10321C00704780B483B000AF786000BF0C37BD46F8
:10322C0080BC7047014B1868704700BF58000020E5
:10323C0070B500260C4D0D4C641BA410A64209D190
:10324C0000F0F6F800260A4D0A4C641BA410A642A6
:10325C0005D170BD55F8043B98470136EEE755F89B
:10326C00043B98470136F2E77834000878340008BC
:10327C00783400087C340008024B0146186800F0D2
:10328C005FB800BF58000020024B0146186800F0E0
:10329C000BB800BF5800002003460244934200D1F3
:1032AC00704703F8011BF9E738B50546002943D0F0
:1032BC0051F8043C0C1F002BB8BFE41800F0AAF81E
:1032CC001E4A1368104633B9636014602846BDE883
:1032DC00384000F0A5B8A3420AD92168621893427D
:1032EC0001BF1A685B685218226063600460EDE7E6
:1032FC001A465B680BB1A342FAD911685018A04268
:10330C000BD120680144501883421160DED118683B
:10331C005B68014411605360D8E702D90C232B6021
:10332C00D4E7206821188B4201BF19685B68091823
:10333C00216063605460C9E738BD00BF24010020E0
:10334C00F8B5CD1C25F0030508350C2D38BF0C2520
:10335C00002D064601DBA94203D90C233360002063
:10336C00F8BD00F057F821490A6814469CB9204F63
:10337C003B6823B92146304600F03CF838602946BA
:10338C00304600F037F8431C23D10C233046336011
:10339C0000F046F8E3E723685B1B17D40B2B03D92B
:1033AC0023601C44256004E06368A2420CBF0B60E0
:1033BC005360304600F034F804F10B00231D20F06C
:1033CC000700C21ACCD01B1AA350C9E72246646866
:1033DC00CCE7C41C24F00304A042E3D0211A3046ED
:1033EC0000F008F80130DDD1CFE700BF2401002048
:1033FC002801002038B50023054D044608462B60F3
:10340C00FEF7C4FB431C02D12B6803B1236038BD0B
:10341C0080010020014800F009B800BF880100209D
:10342C00014800F004B800BF8801002070477047C5
:10343C00F8B500BFF8BC08BC9E467047F8B500BF95
:08344C00F8BC08BC9E46704765
:103454000000000000000000010203040607080940
:1034640002030405060708090A0B0C0D0E0F1010C1
:043474000102000051
:043478003101000816
:04347C000D01000836
:103480000100000001000000010000000100000038
:103490000100000001000000010000000100000028
:1034A0000100000001000000010000000100000018
:1034B000C8000000C8000000C800000005000000AF
:1034C00002000000030000000100000000127A006A
:1034D00010000000010000005C000020000000005F
:1034E00000000000000000000000000000000000DC
:1034F00000000000000000000000000000000000CC
:1035000000000000000000000000000000000000BB
:1035100000000000000000000000000000000000AB
:10352000000000000000000000000000000000009B
:0C3530000000000000000000000000008F
:0400000508001C11C2
:00000001FF
