:020000040800F2
:1000000000280020311B0008C11A0008C71A000888
:10001000CD1A0008D31A0008D91A00080000000001
:10002000000000000000000000000000DF1A0008CF
:10003000EB1A000800000000F71A0008031B000874
:10004000791B0008791B0008791B0008791B000840
:10005000791B0008791B0008791B0008791B000830
:10006000791B0008791B0008791B0008791B000820
:10007000791B0008791B0008791B0008791B000810
:10008000791B0008791B0008791B0008791B000800
:10009000791B0008791B0008791B0008791B0008F0
:1000A000791B0008791B0008791B0008791B0008E0
:1000B000111B0008791B000800000000791B0008D4
:1000C000791B00080000000000000000791B0008F8
:1000D00000000000791B0008791B000800000000E8
:1000E000791B0008791B0008791B0008000000003C
:1000F0000000000000000000000000000000000000
:0C01000000000000000000005FF808F1A3
:10010C0010B5054C237833B9044B13B10448AFF345
:10011C0000800123237010BD64000020000000004B
:10012C00A831000808B5034B1BB103490348AFF3D2
:10013C00008008BD0000000068000020A831000805
:10014C0080B400AF034B01221A6000BFBD4680BCD7
:10015C00704700BF8000002080B400AF034B012229
:10016C001A6000BFBD4680BC704700BF84000020F1
:10017C0080B400AF034B01221A6000BFBD4680BCA7
:10018C00704700BF8800002080B400AF064B1B688E
:10019C00012B04D1044B00221A60012300E0002340
:1001AC001846BD4680BC70478000002080B400AF6C
:1001BC00064B1B68012B04D1044B00221A6001234F
:1001CC0000E000231846BD4680BC70478400002028
:1001DC0080B400AF064B1B68012B04D1044B0022EA
:1001EC001A60012300E000231846BD4680BC70470E
:1001FC008800002080B500AF1F4B1B681F4A13609E
:10020C001F4B1B681C4A13604FF400711D4801F012
:10021C0099FF03461A461A4B1A60184B1A68164B6C
:10022C001B689A4225D1144B1A68154B1B689A42CD
:10023C001FD1154B1A68124B1B689A420DD0104BEC
:10024C001B68114A13600E4B1B68002B11D1FFF772
:10025C0077FF0E4BC8221A600BE00C4B1B68013B5E
:10026C000A4A1360094B1B68002B02D1064B012272
:10027C001A6000BF80BD00BF0400002000000020F9
:10028C0008000020000C01400C0000203000002071
:10029C0080B500AF1F4B1B681F4A13601F4B1B68B8
:1002AC001C4A13604FF480611D4801F04BFF03465C
:1002BC001A461A4B1A60184B1A68164B1B689A424E
:1002CC0025D1144B1A68154B1B689A421FD1154B3C
:1002DC001A68124B1B689A420DD0104B1B68114ABE
:1002EC0013600E4B1B68002B11D1FFF735FF0E4B23
:1002FC00C8221A600BE00C4B1B68013B0A4A1360C6
:10030C00094B1B68002B02D1064B01221A6000BF5F
:10031C0080BD00BF14000020100000201800002039
:10032C00000C01401C0000203400002080B500AF00
:10033C001F4B1B681F4A13601F4B1B681C4A136022
:10034C004FF400611D4801F0FDFE03461A461A4B9E
:10035C001A60184B1A68164B1B689A4225D1144B1D
:10036C001A68154B1B689A421FD1154B1A68124B11
:10037C001B689A420DD0104B1B68114A13600E4B30
:10038C001B68002B11D1FFF7F3FE0E4BC8221A602D
:10039C000BE00C4B1B68013B0A4A1360094B1B68B2
:1003AC00002B02D1064B01221A6000BF80BD00BF9A
:1003BC00240000202000002028000020000C014018
:1003CC002C0000203800002080B500AF01228021D5
:1003DC00254801F0CEFE01224FF48071224801F035
:1003EC00C8FE01224FF400711F4801F0C2FE012229
:1003FC004FF480611C4801F0BCFE01224FF40061F7
:10040C00194801F0B6FE01224FF48051164801F054
:10041C00B0FE01224FF40051134801F0AAFE012254
:10042C000121124801F0A5FE012202210F4801F022
:10043C00A0FE012204210D4801F09BFE012208219F
:10044C000A4801F096FE01221021084801F091FEA5
:10045C0001222021054801F08CFE01224021034895
:10046C0001F087FE00BF80BD00080140000C014078
:10047C0080B582B000AF78607B68092B00F2BC813C
:10048C0001A252F823F000BFBD04000811050008BA
:10049C0065050008B90500080D060008610600088E
:1004AC00B5060008090700085D070008B107000839
:1004BC0000228021D34801F05CFE00224FF48071B1
:1004CC00D04801F056FE00224FF40071CD4801F0E7
:1004DC0050FE00224FF48061CA4801F04AFE00220F
:1004EC004FF40061C74801F044FE00224FF48051E4
:1004FC00C44801F03EFE01224FF40051C14801F006
:10050C0038FE7AE101228021BE4801F032FE002241
:10051C004FF48071BB4801F02CFE00224FF40071A7
:10052C00B84801F026FE01224FF48061B54801F075
:10053C0020FE01224FF40061B24801F01AFE0122A4
:10054C004FF48051AF4801F014FE01224FF40051DA
:10055C00AC4801F00EFE50E100228021A94801F0C8
:10056C0008FE00224FF48071A64801F002FE012221
:10057C004FF40071A34801F0FCFD00224FF48061A0
:10058C00A04801F0F6FD00224FF400619D4801F0F7
:10059C00F0FD01224FF480519A4801F0EAFD00224F
:1005AC004FF40051974801F0E4FD26E10022802130
:1005BC00944801F0DEFD00224FF48071914801F067
:1005CC00D8FD00224FF400718E4801F0D2FD0022BC
:1005DC004FF480618B4801F0CCFD01224FF4006197
:1005EC00884801F0C6FD01224FF48051854801F086
:1005FC00C0FD00224FF40051824801F0BAFDFCE02E
:10060C00012280217F4801F0B4FD00224FF480715B
:10061C007C4801F0AEFD00224FF40071794801F0E6
:10062C00A8FD01224FF48061764801F0A2FD012261
:10063C004FF40061734801F09CFD00224FF480518F
:10064C00704801F096FD00224FF400516D4801F006
:10065C0090FDD2E0002280216A4801F08AFD01223F
:10066C004FF48071674801F084FD00224FF4007153
:10067C00644801F07EFD00224FF48061614801F076
:10068C0078FD01224FF400615E4801F072FD0022FA
:10069C004FF480515B4801F06CFD00224FF4005187
:1006AC00584801F066FDA8E000228021554801F071
:1006BC0060FD01224FF48071524801F05AFD002276
:1006CC004FF400714F4801F054FD00224FF480614B
:1006DC004C4801F04EFD00224FF40061494801F0F6
:1006EC0048FD00224FF48051464801F042FD0022A3
:1006FC004FF40051434801F03CFD7EE00022802184
:10070C00404801F036FD00224FF480713D4801F065
:10071C0030FD00224FF400713A4801F02AFD01220D
:10072C004FF48061374801F024FD01224FF4006141
:10073C00344801F01EFD01224FF48051314801F084
:10074C0018FD01224FF400512E4801F012FD54E027
:10075C00002280212B4801F00CFD00224FF4807107
:10076C00284801F006FD00224FF40071254801F0E5
:10077C0000FD00224FF48061224801F0FAFC0022B7
:10078C004FF400611F4801F0F4FC00224FF480513B
:10079C001C4801F0EEFC00224FF40051194801F006
:1007AC00E8FC2AE000228021164801F0E2FC00223D
:1007BC004FF48071134801F0DCFC00224FF40071FF
:1007CC00104801F0D6FC00224FF480610D4801F076
:1007DC00D0FC01224FF400610A4801F0CAFC00224F
:1007EC004FF48051074801F0C4FC00224FF4005133
:1007FC00044801F0BEFC00E000BF00BF0837BD4656
:10080C0080BD00BF0008014080B582B000AF7860A9
:10081C007B68092B00F2808101A252F823F000BF03
:10082C00550800089D080008E50800082D09000877
:10083C0075090008BD090008050A00084D0A0008E2
:10084C00950A0008DD0A000800220121B54801F0D4
:10085C0090FC00220221B34801F08BFC0022042101
:10086C00B04801F086FC00220821AE4801F081FC62
:10087C0000221021AB4801F07CFC00222021A94869
:10088C0001F077FC01224021A64801F072FC44E102
:10089C0001220121A34801F06CFC00220221A14895
:1008AC0001F067FC002204219E4801F062FC012249
:1008BC0008219C4801F05DFC01221021994801F0AF
:1008CC0058FC01222021974801F053FC01224021C1
:1008DC00944801F04EFC20E100220121914801F0E6
:1008EC0048FC002202218F4801F043FC0122042124
:1008FC008C4801F03EFC002208218A4801F039FCAA
:10090C0000221021874801F034FC01222021854867
:10091C0001F02FFC00224021824801F02AFCFCE06F
:10092C00002201217F4801F024FC002202217D4895
:10093C0001F01FFC002204217A4801F01AFC00226D
:10094C000821784801F015FC01221021754801F0AE
:10095C0010FC01222021734801F00BFC00224021E5
:10096C00704801F006FCD8E0012201216D4801F02D
:10097C0000FC002202216B4801F0FBFB0022042149
:10098C00684801F0F6FB01220821664801F0F1FBF2
:10099C0001221021634801F0ECFB00222021614868
:1009AC0001F0E7FB002240215E4801F0E2FBB4E0DD
:1009BC00002201215B4801F0DCFB01220221594895
:1009CC0001F0D7FB00220421564801F0D2FB002293
:1009DC000821544801F0CDFB01221021514801F0AF
:1009EC00C8FB002220214F4801F0C3FB002240210C
:1009FC004C4801F0BEFB90E000220121494801F077
:100A0C00B8FB01220221474801F0B3FB002204216C
:100A1C00444801F0AEFB00220821424801F0A9FB3A
:100A2C00002210213F4801F0A4FB002220213D4868
:100A3C0001F09FFB002240213A4801F09AFB6CE048
:100A4C0000220121374801F094FB00220221354895
:100A5C0001F08FFB00220421324801F08AFB0122B5
:100A6C000821304801F085FB012210212D4801F0AE
:100A7C0080FB012220212B4801F07BFB012240212D
:100A8C00284801F076FB48E000220121254801F0BE
:100A9C0070FB00220221234801F06BFB0022042191
:100AAC00204801F066FB002208211E4801F061FB82
:100ABC00002210211B4801F05CFB00222021194868
:100ACC0001F057FB00224021164801F052FB24E0B4
:100ADC0000220121134801F04CFB00220221114895
:100AEC0001F047FB002204210E4801F042FB0022DA
:100AFC0008210C4801F03DFB01221021094801F0AE
:100B0C0038FB00222021074801F033FB0022402152
:100B1C00044801F02EFB00E000BF00BF0837BD46C3
:100B2C0080BD00BF000C014080B582B000AF786082
:100B3C007B68002B03D07B68012B22D043E0002282
:100B4C004FF48041224801F014FB01224FF4004184
:100B5C001F4801F00EFB002280211E4801F009FB0A
:100B6C0001224FF480511B4801F003FB1A4B1B6808
:100B7C001846FFF749FE194B1B681846FFF778FC1F
:100B8C0021E001224FF48041114801F0F2FA0022D9
:100B9C004FF400410E4801F0ECFA012280210D487F
:100BAC0001F0E7FA00224FF480510A4801F0E1FA13
:100BBC00094B5B681846FFF727FE084B5B68184625
:100BCC00FFF756FC00BF00BF0837BD4680BD00BF15
:100BDC0000080140000C014098000020900000200B
:100BEC0080B500AF074B1B68012B02D100F00CF84D
:100BFC0005E0044B1B68012B01D000F075F800BF19
:100C0C0080BD00BF5400002080B500AF304B1B6886
:100C1C00092B06DC2F4B00221A602D4B1B682D4A2A
:100C2C0053602B4B1B68092B18DD294B1B682A4A78
:100C3C0082FB03129210DB17D31A264A1360244B43
:100C4C001968254B83FB01239A10CB17D21A134634
:100C5C009B0013445B00CA1A1E4B5A601F4B1B6847
:100C6C00092B06DC1E4B00221A601C4B1B681C4A0D
:100C7C0053601A4B1B68092B18DD184B1B68164A5E
:100C8C0082FB03129210DB17D31A154A1360134B15
:100C9C001968114B83FB01239A10CB17D21A1346F8
:100CAC009B0013445B00CA1A0D4B5A600D4B1B681A
:100CBC005A1C0C490A601846FFF736FF094B1B6893
:100CCC00012B02DD074B00221A6000BF80BD00BF64
:100CDC00A80000209000002067666666AC0000202B
:100CEC00980000208C00002080B500AF4D4B0022F6
:100CFC001A604D4B1B684B4A53604B4B1B68022BC5
:100D0C0027D14A4B1B68092B06DC494B00221A6081
:100D1C00464B1B68464A5360444B1B68092B18DD35
:100D2C00424B1B68434A82FB03129210DB17D31A07
:100D3C003F4A13603D4B19683E4B83FB01239A10CD
:100D4C00CB17D21A13469B0013445B00CA1A384BBC
:100D5C005A60354B1B68032B27D1374B1B68092B6B
:100D6C0006DC334B00221A60334B1B68304A53604D
:100D7C00314B1B68092B18DD2F4B1B682D4A82FB4E
:100D8C0003129210DB17D31A294A13602A4B1968E5
:100D9C00284B83FB01239A10CB17D21A13469B00C6
:100DAC0013445B00CA1A224B5A601F4B1B68042B5E
:100DBC0027D1224B1B68092B06DC1D4B00221A6025
:100DCC001E4B1B681A4A53601D4B1B68092B18DD00
:100DDC001A4B1B68174A82FB03129210DB17D31AAB
:100DEC00134A1360154B1968124B83FB01239A109D
:100DFC00CB17D21A13469B0013445B00CA1A0C4B38
:100E0C005A60104B1B685A1C0E490A601846FFF7B3
:100E1C008BFE0C4B1B68012B02DD0A4B00221A6067
:100E2C0000BF80BD9000002054000020480000202E
:100E3C0098000020676666664C0000205000002079
:100E4C003C0000208C00002080B400AF064B1B68D7
:100E5C00013B054A1360054B1B68013B034A1360B9
:100E6C0000BFBD4680BC7047A8000020AC0000202D
:100E7C0080B500AFA54B1B680D3B042B00F23B81EA
:100E8C0001A252F823F000BFA90E0008190F0008A8
:100E9C00890F0008111000087F10000801220221A0
:100EAC009B4801F066F901220421994801F061F98F
:100EBC0001220821964801F05CF901221021944886
:100ECC0001F057F901222021914801F052F9012239
:100EDC0040218F4801F04DF98C4B0E221A608D4B3E
:100EEC001B688D4A13608D4B1B688D4A1360894BB0
:100EFC001B68322202FB03F38A4A1360874B1B6880
:100F0C00322202FB03F3884A1360FDE00022022127
:100F1C007F4801F02EF9012204217D4801F029F9C6
:100F2C00012208217A4801F024F901221021784885
:100F3C0001F01FF901222021754801F01AF9002255
:100F4C004021734801F015F9764B1B68013B754A3B
:100F5C001360754B1B68013B734A1360724B1B6823
:100F6C00002B00F3CA80694B0F221A606E4B64226F
:100F7C001A606E4B1B686A4A1360BEE000220221A5
:100F8C00634801F0F6F801220421614801F0F1F800
:100F9C00012208215E4801F0ECF8012210215C4886
:100FAC0001F0E7F800222021594801F0E2F8012273
:100FBC004021574801F0DDF85A4B1B68013B594A58
:100FCC001360594B1B68013B574A1360554B1B6808
:100FDC00002B00F39480544B1B68002B00F38F8084
:100FEC004A4B10221A604F4B96221A604E4BFA2233
:100FFC001A604A4B1B68484A1360464B1B68484AA8
:10100C0013607CE001220221414801F0B2F8012278
:10101C0004213F4801F0ADF8002208213C4801F0C2
:10102C00A8F8002210213A4801F0A3F8012220214F
:10103C00374801F09EF801224021354801F099F81B
:10104C00384B1B68013B374A1360374B1B68013B1D
:10105C00354A1360334B1B68002B52DC2B4B11228F
:10106C001A60304B64221A60304B1B682A4A13609A
:10107C0047E001220221264801F07BF800220421DE
:10108C00234801F076F801220821214801F071F87B
:10109C00002210211E4801F06CF8012220211C486E
:1010AC0001F067F801224021194801F062F81D4B4C
:1010BC001B68013B1B4A13601B4B1B68013B1A4A04
:1010CC001360184B1B68002B1DDC174B1B68002B87
:1010DC0019DC0E4B0E221A60124BFA221A60124BBC
:1010EC0096221A600B4B1B680B4A13600B4B1B6848
:1010FC000B4A136007E000BF06E000BF04E000BF2E
:10110C0002E000BF00E000BF00BF80BDB0000020C7
:10111C00000801403C000020A800002044000020F2
:10112C00AC000020A0000020A40000204000002003
:10113C0080B500AF104B1B68022B1BD10122042180
:10114C000E4801F016F8012208210C4801F011F8A4
:10115C0001222021094801F00CF801224021074806
:10116C0001F007F80221054801F01BF81021034893
:10117C0001F017F800BF80BD5400002000080140AA
:10118C0080B500AF104B1B68032B1BD10122022131
:10119C000E4800F0EEFF012208210C4800F0E9FF98
:1011AC0001221021094800F0E4FF012240210748E8
:1011BC0000F0DFFF0421054800F0F3FF2021034875
:1011CC0000F0EFFF00BF80BD54000020000801407C
:1011DC0080B500AF104B1B68042B1BD101220421DE
:1011EC000E4800F0C6FF012202210C4800F0C1FF9E
:1011FC0001222021094800F0BCFF012210210748E0
:10120C0000F0B7FF0821054800F0CBFF4021034850
:10121C0000F0C7FF00BF80BD540000200008014053
:10122C0080B500AFFEF7B0FF0346002B0BD0074B89
:10123C001B680133054A1360044B1B68042B02DD49
:10124C00024B01221A6000BF80BD00BF5400002079
:10125C0080B500AF034B1B68012B01D1FFF708FED3
:10126C0000BF80BD5400002080B500AF034B1B684D
:10127C00022B01D1FFF75CFF00BF80BD54000020A2
:10128C0080B500AF034B1B68032B01D1FFF778FF30
:10129C0000BF80BD5400002080B500AF034B1B681D
:1012AC00042B01D1FFF794FF00BF80BD5400002038
:1012BC0080B500AF3F4B1B68042B52D0042B76DC5F
:1012CC00022B02D0032B26D071E0FEF76FFF0346F2
:1012DC00002B0BD0384B1B680133374A1360364B4D
:1012EC001B68632B02DD344B01221A60FEF770FF82
:1012FC000346002B0BD0304B1B68304A13602F4B2E
:10130C001A682F4B1B68D31A2E4A136003E02B4B21
:10131C001B68294A1360FEF749FF0346002B0BD0CC
:10132C00294B1B680133284A1360274B1B68632B1E
:10133C0002DD254B01221A60FEF74AFF0346002B03
:10134C000BD0214B1B681E4A13601E4B1A681C4B9A
:10135C001B681344194A136003E0194B1B681A4AA3
:10136C001360FEF723FF0346002B0BD0174B1B68B3
:10137C000133164A1360154B1B68632B02DD134BAC
:10138C0001221A60FEF724FF0346002B0BD00F4BF3
:10139C001B680C4A13600B4B1A68094B1B681344EF
:1013AC00064A136003E0074B1B68084A136000BF32
:1013BC0080BD00BF54000020480000203C000020ED
:1013CC0040000020440000204C0000205000002071
:1013DC0080B500AF4FF48071024800F0E2FE00BF10
:1013EC0080BD00BF000C014080B500AF00F0C0FB19
:1013FC0000F08CF800F012F900F0C4F8354801F058
:10140C0015FB01224FF48071334800F0B2FE01222B
:10141C000221324800F0ADFE012204212F4800F0D9
:10142C00A8FE012208212D4800F0A3FE0122102164
:10143C002A4800F09EFE01222021284800F099FE47
:10144C0001224021254800F094FEFEF7BDFF244BFD
:10145C0001221A60234B0D221A6000224FF47A717C
:10146C00214800F065F90A224FF4FA611F4800F098
:10147C005FF94FF4FA724FF4FA611D4800F058F915
:10148C004FF4FA724FF4FA611A4800F051F94FF424
:10149C00FA724FF4FA61184800F04AF94FF47A7274
:1014AC004FF4FA61154800F043F9FA224FF4FA614F
:1014BC00134800F03DF964224FF4FA61114800F032
:1014CC0037F90A224FF4FA610F4800F031F900F0B5
:1014DC00F9F9FCE7D8030020000C0140000801409A
:1014EC0054000020B0000020DD1300085D1200083D
:1014FC00751200088D120008A5120008550E000880
:10150C00ED0B00082D120008BD12000880B590B03C
:10151C0000AF07F1180328220021184601F036FE0F
:10152C003B1D00221A605A609A60DA601A6102232D
:10153C00BB610123BB621023FB6200237B6307F1B9
:10154C001803184600F046FE0346002B01D000F0AD
:10155C00EAF80F237B600023BB600023FB600023B1
:10156C003B6100237B613B1D0021184601F0B2F862
:10157C000346002B01D000F0D6F800BF4037BD4623
:10158C0080BD000080B586B000AF07F108030022D3
:10159C001A605A609A60DA603B4600221A605A6000
:1015AC001D4B4FF080421A601B4B41F63F725A6044
:1015BC00194B00229A60184B0922DA60164B002254
:1015CC001A61154B00229A61134801F0DFF90346AA
:1015DC00002B01D000F0A7F84FF48053BB6007F14B
:1015EC00080319460C4801F05DFB0346002B01D0A3
:1015FC0000F099F800233B6000237B603B461946C2
:10160C00054801F035FD0346002B01D000F08BF8A6
:10161C0000BF1837BD4680BDD803002080B586B00A
:10162C0000AF07F1080300221A605A609A60DA6072
:10163C002F4B9B692E4A43F0040393612C4B9B69FF
:10164C0003F004037B607B68294B9B69284A43F0B9
:10165C0008039361264B9B6903F008033B603B68CE
:10166C0000224FF6FE71234800F083FD002241F268
:10167C00FF11214800F07DFD4FF6FE73BB60012386
:10168C00FB6000233B6102237B6107F108031946D1
:10169C00184800F0DDFB41F2FF13BB600123FB6037
:1016AC0000233B6102237B6107F1080319461248B2
:1016BC0000F0CEFB4FF44063BB600023FB600023C3
:1016CC003B6107F1080319460B4800F0C1FB4FF4CE
:1016DC000073BB600023FB6001233B6107F108032F
:1016EC001946054800F0B4FB00BF1837BD4680BD55
:1016FC000010024000080140000C014080B582B08F
:10170C0000AF78607B681B68B3F1804F07D1FEF7A0
:10171C0071FDFEF7BDFDFEF709FE00F065F800BF98
:10172C000837BD4680BD80B400AF72B600BFFEE77F
:10173C0080B487B000AFF860B9607A600023FB75A5
:10174C0002E0FB7D0133FB75FA7D244913469B00B7
:10175C0013449B000B441B68002B02D0FB7D272BF2
:10176C00EFD9FB7D282B04D11D4B01221A702823A5
:10177C002FE0FA7D194913469B0013449B000B4440
:10178C00FA681A60FA7DBB681649A1FB0313D908E5
:10179C00124813469B0013449B0003440433196006
:1017AC00FA7D7B680F49A1FB0313D9080B4813463C
:1017BC009B0013449B00034408331960FA7D0749CE
:1017CC0013469B0013449B000B440C3300221A70ED
:1017DC00FB7D18461C37BD4680BC7047B800002006
:1017EC00B4000020CDCCCCCC80B483B000AF0023AF
:1017FC00FB715CE0FA79324913469B0013449B0061
:10180C000B441B68002B4FD0FA792D4913469B00D3
:10181C0013449B000B4404331B68002B32D1FA7920
:10182C00274913469B0013449B000B440C331B7835
:10183C00FA790133D8B2224913469B0013449B001A
:10184C000B440C3302461A70FA791D4913469B005F
:10185C0013449B000B4408331B68002B24D0F979EC
:10186C00FA7917480B469B000B449B000344083342
:10187C001968134813469B0013449B00034404331C
:10188C00196011E0FA790E4913469B0013449B0032
:10189C000B4404331B68591E094813469B00134420
:1018AC009B00034404331960FB790133FB71FB7912
:1018BC00272B9FD900BF00BF0C37BD4680BC70479B
:1018CC00B800002080B582B000AF0023FB7139E076
:1018DC00FA79224913469B0013449B000B440C33AA
:1018EC001B78002B2BD0FA791C4913469B00134410
:1018FC009B000B441B689847FA79184913469B00C8
:10190C0013449B000B440C331B78013BD8B2134996
:10191C0013469B0013449B000B440C3302461A7075
:10192C00FA790E4913469B0013449B000B44083371
:10193C001B68002B03D1FB79184600F011F8FB79DA
:10194C000133FB71FB79272BC2D900F057F800F05B
:10195C004FF800BF0837BD4680BD00BFB80000205F
:10196C0080B485B000AF78601F497A6813469B003D
:10197C0013449B000B441B68002B05D11B4B082206
:10198C001A700923FB7301E00A23FB7316497A686A
:10199C0013469B0013449B000B4400221A6012490F
:1019AC007A6813469B0013449B000B4404330022BB
:1019BC001A600D497A6813469B0013449B000B4434
:1019CC00083300221A6008497A6813469B001344B6
:1019DC009B000B440C3300221A70FB7B1846143707
:1019EC00BD4680BC704700BFB8000020B40000208A
:1019FC0080B400AF00BFBD4680BC704780B400AF60
:101A0C0000BFBD4680BC704780B485B000AF154B9D
:101A1C009B69144A43F001039361124B9B6903F0D9
:101A2C000103BB60BB680F4BDB690E4A43F080536C
:101A3C00D3610C4BDB6903F080537B607B680A4BF2
:101A4C005B68FB60FB6823F0E063FB60FB6843F0C2
:101A5C008063FB60044AFB68536000BF1437BD46CB
:101A6C0080BC7047001002400000014080B584B07B
:101A7C0000AF78607B681B68B3F1804F13D10C4BBF
:101A8C00DB690B4A43F00103D361094BDB6903F0BB
:101A9C000103FB60FB68002200211C2000F0A1F96F
:101AAC001C2000F0BAF900BF1037BD4680BD00BF46
:101ABC000010024080B400AFFEE780B400AFFEE738
:101ACC0080B400AFFEE780B400AFFEE780B400AF97
:101ADC00FEE780B400AF00BFBD4680BC704780B449
:101AEC0000AF00BFBD4680BC704780B400AF00BFE4
:101AFC00BD4680BC704780B500AF00F07FF800BFDA
:101B0C0080BD000080B500AF024800F0DBFF00BFD5
:101B1C0080BD00BFD803002080B400AF00BFBD461D
:101B2C0080BC7047FFF7F8FF0B480C490C4A0023A8
:101B3C0002E0D458C4500433C4188C42F9D3094A77
:101B4C00094C002301E013600432A242FBD301F0E4
:101B5C00F9FAFFF749FC70470000002064000020F0
:101B6C00EC3100086400002024040020FEE7000093
:101B7C0080B500AF084B1B68074A43F01003136095
:101B8C00032000F023F90F2000F008F8FFF73CFFCA
:101B9C000023184680BD00BF0020024080B582B0F3
:101BAC0000AF7860124B1A68124B1B7819464FF431
:101BBC007A73B3FBF1F3B2FBF3F3184600F03BF985
:101BCC000346002B01D001230EE07B680F2B0AD8B3
:101BDC00002279684FF0FF3000F003F9064A7B6869
:101BEC001360002300E0012318460837BD4680BD72
:101BFC0058000020600000205C00002080B400AF82
:101C0C00054B1B781A46054B1B681344034A13609B
:101C1C0000BFBD4680BC704760000020200400203F
:101C2C0080B400AF024B1B681846BD4680BC7047A1
:101C3C002004002080B485B000AF78607B6803F08E
:101C4C000703FB600C4BDB68BB60BA684FF6FF0305
:101C5C001340BB60FB681A02BB68134343F0BF63BD
:101C6C0043F40033BB60044ABB68D36000BF143735
:101C7C00BD4680BC704700BF00ED00E080B400AFF3
:101C8C00044BDB681B0A03F007031846BD4680BCF7
:101C9C00704700BF00ED00E080B483B000AF034696
:101CAC00FB7197F90730002B0BDBFB7903F01F025C
:101CBC00064997F907305B09012000FA02F241F856
:101CCC00232000BF0C37BD4680BC704700E100E00C
:101CDC0080B483B000AF03463960FB7197F90730CD
:101CEC00002B0ADB3B68DAB20C4997F9073012017A
:101CFC00D2B20B4483F800230AE03B68DAB20849FD
:101D0C00FB7903F00F03043B1201D2B20B441A7699
:101D1C0000BF0C37BD4680BC704700BF00E100E03F
:101D2C0000ED00E080B489B000AFF860B9607A6073
:101D3C00FB6803F00703FB61FB69C3F10703042B8A
:101D4C0028BF0423BB61FB690433062B02D9FB6952
:101D5C00033B00E000237B614FF0FF32BB6902FACA
:101D6C0003F3DA43BB681A407B699A404FF0FF31AA
:101D7C007B6901FA03F3D9437B680B401343184684
:101D8C002437BD4680BC704780B582B000AF786008
:101D9C007B68013BB3F1807F01D301230FE00A4A3A
:101DAC007B68013B53600F214FF0FF30FFF790FF32
:101DBC00054B00229A60044B07221A600023184638
:101DCC000837BD4680BD00BF10E000E080B582B092
:101DDC0000AF78607868FFF72DFF00BF0837BD466D
:101DEC0080BD80B586B000AF0346B9607A60FB73E6
:101DFC0000237B61FFF742FF78617A68B9687869E4
:101E0C00FFF790FF024697F90F3011461846FFF77F
:101E1C005FFF00BF1837BD4680BD80B582B000AFF4
:101E2C000346FB7197F907301846FFF735FF00BFE3
:101E3C000837BD4680BD80B582B000AF7860786849
:101E4C00FFF7A2FF034618460837BD4680BD0000C9
:101E5C0080B48BB000AF7860396000237B620023C4
:101E6C003B6248E101227B6A02FA03F3FB613B68A7
:101E7C001B68FA691340BB61BA69FB699A4240F06E
:101E8C0037813B685B68A34A93425ED0A14A934278
:101E9C0075D8A14A934258D09F4A93426FD89F4A13
:101EAC00934252D09D4A934269D89D4A93424CD05A
:101EBC009B4A934263D89B4A934246D0994A934299
:101ECC005DD8122B2AD8122B59D801A252F823F024
:101EDC00571F0008311F0008431F0008851F00080A
:101EEC008B1F00088B1F00088B1F00088B1F00081E
:101EFC008B1F00088B1F00088B1F00088B1F00080E
:101F0C008B1F00088B1F00088B1F00088B1F0008FD
:101F1C008B1F0008391F00084D1F0008824A93428E
:101F2C0013D02CE03B68DB683B6229E03B68DB6844
:101F3C0004333B6224E03B68DB6808333B621FE000
:101F4C003B68DB680C333B621AE03B689B68002BF8
:101F5C0002D104233B6213E03B689B68012B05D143
:101F6C0008233B627B68FA691A6109E008233B622B
:101F7C007B68FA695A6103E000233B6200E000BF12
:101F8C00BB69FF2B01D87B6801E07B6804337B6164
:101F9C00BB69FF2B02D87B6A9B0002E07B6A083B83
:101FAC009B003B617B691A680F213B6901FA03F3C3
:101FBC00DB431A40396A3B6901FA03F31A437B6924
:101FCC001A603B685B6803F08053002B00F0908034
:101FDC00564B9B69554A43F001039361534B9B69E4
:101FEC0003F00103BB60BB68514A7B6A9B08023358
:101FFC0052F82330FB607B6A03F003039B000F2233
:10200C0002FA03F3DB43FA681340FB607B68494A2E
:10201C0093420DD07B68484A934207D07B68474A6D
:10202C00934201D1022304E0032302E0012300E0E8
:10203C0000237A6A02F0030292009340FA68134379
:10204C00FB603B497B6A9B080233FA6841F823200A
:10205C003B685B6803F48013002B06D0384B9A68FE
:10206C003749BB6913438B6006E0354B9A68BB69F3
:10207C00DB43334913408B603B685B6803F400130C
:10208C00002B06D02E4BDA682D49BB691343CB606D
:10209C0006E02B4BDA68BB69DB4329491340CB6064
:1020AC003B685B6803F40033002B06D0244B5A6862
:1020BC002349BB6913434B6006E0214B5A68BB694B
:1020CC00DB431F4913404B603B685B6803F4803370
:1020DC00002B06D01A4B1A681949BB6913430B60C5
:1020EC0006E0174B1A68BB69DB43154913400B60BC
:1020FC007B6A01337B623B681A687B6A22FA03F3C2
:10210C00002B7FF4AFAE00BF00BF2C37BD4680BCA8
:10211C00704700BF00003210000031100000221088
:10212C0000002110000012100000111000100240DD
:10213C000000014000080140000C0140001001406B
:10214C000004014080B485B000AF78600B467B8002
:10215C007B689A687B881340002B02D00123FB73A9
:10216C0001E00023FB73FB7B18461437BD4680BC93
:10217C00704780B483B000AF78600B467B80134609
:10218C007B707B78002B03D07A887B681A6103E024
:10219C007B881A047B681A6100BF0C37BD4680BC73
:1021AC00704780B485B000AF78600B467B807B684D
:1021BC00DB68FB607A88FB6813401A04FB68D94320
:1021CC007B880B401A437B681A6100BF1437BD46ED
:1021DC0080BC704780B586B000AF78607B68002B00
:1021EC0001D101236CE27B681B6803F00103002B17
:1021FC0000F08780924B5B6803F00C03042B0CD02F
:10220C008F4B5B6803F00C03082B12D18C4B5B6873
:10221C0003F48033B3F5803F0BD1894B1B6803F477
:10222C000033002B6CD07B685B68002B68D10123DA
:10223C0046E27B685B68B3F5803F06D1804B1B6838
:10224C007F4A43F4803313602EE07B685B68002B7D
:10225C000CD17B4B1B687A4A23F480331360784B88
:10226C001B68774A23F4802313601DE07B685B684E
:10227C00B3F5A02F0CD1724B1B68714A43F4802329
:10228C0013606F4B1B686E4A43F4803313600BE092
:10229C006B4B1B686A4A23F480331360684B1B68D2
:1022AC00674A23F4802313607B685B68002B13D090
:1022BC00FFF7B6FC386108E0FFF7B2FC02463B6959
:1022CC00D31A642B01D90323FAE15D4B1B6803F489
:1022DC000033002BF0D014E0FFF7A2FC386108E0CB
:1022EC00FFF79EFC02463B69D31A642B01D90323EA
:1022FC00E6E1534B1B6803F40033002BF0D100E0F4
:10230C0000BF7B681B6803F00203002B63D04C4BAF
:10231C005B6803F00C03002B0BD0494B5B6803F09C
:10232C000C03082B1CD1464B5B6803F48033002B49
:10233C0016D1434B1B6803F00203002B05D07B68BE
:10234C001B69012B01D00123BAE13D4B1B6823F023
:10235C00F8027B685B69DB00394913430B603AE098
:10236C007B681B69002B20D0364B01221A60FFF7CB
:10237C0057FC386108E0FFF753FC02463B69D31A5F
:10238C00022B01D903239BE12D4B1B6803F00203A5
:10239C00002BF0D02A4B1B6823F0F8027B685B699A
:1023AC00DB00274913430B6015E0264B00221A6013
:1023BC00FFF736FC386108E0FFF732FC02463B6958
:1023CC00D31A022B01D903237AE11D4B1B6803F0AE
:1023DC000203002BF0D17B681B6803F00803002B71
:1023EC003AD07B689B69002B19D0174B01221A60DD
:1023FC00FFF716FC386108E0FFF712FC02463B6958
:10240C00D31A022B01D903235AE10D4B5B6A03F05B
:10241C000203002BF0D0012000F09AFA1CE00A4BCA
:10242C0000221A60FFF7FCFB38610FE0FFF7F8FBA6
:10243C0002463B69D31A022B08D9032340E100BFA3
:10244C000010024000004242800442429E4B5B6AF4
:10245C0003F00203002BE9D17B681B6803F0040333
:10246C00002B00F0A6800023FB75974BDB6903F073
:10247C008053002B0DD1944BDB69934A43F080536E
:10248C00D361914BDB6903F08053BB60BB680123C4
:10249C00FB758E4B1B6803F48073002B18D18B4B90
:1024AC001B688A4A43F480731360FFF7B9FB3861E9
:1024BC0008E0FFF7B5FB02463B69D31A642B01D940
:1024CC000323FDE0814B1B6803F48073002BF0D0D9
:1024DC007B68DB68012B06D17B4B1B6A7A4A43F085
:1024EC00010313622DE07B68DB68002B0CD1764B6B
:1024FC001B6A754A23F001031362734B1B6A724A01
:10250C0023F0040313621CE07B68DB68052B0CD101
:10251C006D4B1B6A6C4A43F0040313626A4B1B6AD3
:10252C00694A43F0010313620BE0674B1B6A664A6E
:10253C0023F001031362644B1B6A634A23F0040308
:10254C0013627B68DB68002B15D0FFF769FB3861E1
:10255C000AE0FFF765FB02463B69D31A41F2883269
:10256C00934201D90323ABE0574B1B6A03F00203E0
:10257C00002BEED014E0FFF753FB38610AE0FFF7B5
:10258C004FFB02463B69D31A41F28832934201D980
:10259C00032395E04C4B1B6A03F00203002BEED196
:1025AC00FB7D012B05D1484BDB69474A23F0805357
:1025BC00D3617B68DB69002B00F08180424B5B6848
:1025CC0003F00C03082B61D07B68DB69022B46D12E
:1025DC003F4B00221A60FFF723FB386108E0FFF73E
:1025EC001FFB02463B69D31A022B01D9032367E078
:1025FC00354B1B6803F00073002BF0D17B681B6A12
:10260C00B3F5803F08D1304B5B6823F400327B6814
:10261C009B682D4913434B602B4B5B6823F474125E
:10262C007B68196A7B685B6A0B43274913434B60D1
:10263C00274B01221A60FFF7F3FA386108E0FFF725
:10264C00EFFA02463B69D31A022B01D9032337E078
:10265C001D4B1B6803F00073002BF0D02FE01C4BBC
:10266C0000221A60FFF7DCFA386108E0FFF7D8FAAD
:10267C0002463B69D31A022B01D9032320E0124BEB
:10268C001B6803F00073002BF0D118E07B68DB694A
:10269C00012B01D1012313E00B4B5B68FB60FB6842
:1026AC0003F480327B681B6A9A4206D1FB6803F400
:1026BC0070127B685B6A9A4201D0012300E0002310
:1026CC0018461837BD4680BD00100240007000400F
:1026DC006000424280B584B000AF786039607B689E
:1026EC00002B01D10123D0E06A4B1B6803F00703D8
:1026FC003A689A4210D9674B1B6823F00702654968
:10270C003B6813430B60634B1B6803F007033A6889
:10271C009A4201D00123B8E07B681B6803F00203E6
:10272C00002B20D07B681B6803F00403002B05D022
:10273C00594B5B68584A43F4E06353607B681B68F1
:10274C0003F00803002B05D0534B5B68524A43F44B
:10275C0060535360504B5B6823F0F0027B689B68BE
:10276C004D4913434B607B681B6803F00103002B3E
:10277C0040D07B685B68012B07D1474B1B6803F487
:10278C000033002B15D101237FE07B685B68022BA3
:10279C0007D1414B1B6803F00073002B09D10123B7
:1027AC0073E03D4B1B6803F00203002B01D10123A6
:1027BC006BE0394B5B6823F003027B685B6836493E
:1027CC0013434B60FFF72CFAF8600AE0FFF728FA86
:1027DC000246FB68D31A41F28832934201D9032393
:1027EC0053E02D4B5B6803F00C027B685B689B002D
:1027FC009A42EBD1274B1B6803F007033A689A42C5
:10280C0010D2244B1B6823F0070222493B68134368
:10281C000B60204B1B6803F007033A689A4201D007
:10282C00012332E07B681B6803F00403002B08D003
:10283C00194B5B6823F4E0627B68DB681649134331
:10284C004B607B681B6803F00803002B09D0124B0C
:10285C005B6823F460527B681B69DB000E491343F1
:10286C004B6000F021F802460B4B5B681B0903F030
:10287C000F030A49CB5C22FA03F3094A1360094B94
:10288C001B681846FFF78AF9002318461037BD4617
:10289C0080BD00BF0020024000100240C031000883
:1028AC00580000205C00002080B487B000AF0023EB
:1028BC00FB600023BB6000237B6100237B60002353
:1028CC003B611E4B5B68FB60FB6803F00C03042B45
:1028DC0002D0082B03D027E0194B3B6127E0FB68A3
:1028EC009B0C03F00F03174AD35C7B60FB6803F46B
:1028FC008033002B10D0114B5B685B0C03F0010391
:10290C00114AD35CBB607B680D4A02FB03F2BB68C7
:10291C00B2FBF3F37B6104E07B680C4A02FB03F32C
:10292C007B617B693B6102E0054B3B6100BF3B690E
:10293C0018461C37BD4680BC704700BF00100240D3
:10294C0000127A00D0310008E031000800093D0087
:10295C0080B485B000AF78600A4B1B680A4AA2FBB2
:10296C0003235B0A7A6802FB03F3FB6000BFFB687E
:10297C005A1EFA60002BF9D100BF00BF1437BD46B8
:10298C0080BC704758000020D34D621080B582B0D7
:10299C0000AF78607B68002B01D1012341E07B689C
:1029AC0093F83D30DBB2002B06D17B68002283F814
:1029BC003C207868FFF75AF87B68022283F83D20A8
:1029CC007B681A687B6804331946104600F056FA87
:1029DC007B68012283F846207B68012283F83E2025
:1029EC007B68012283F83F207B68012283F840201A
:1029FC007B68012283F841207B68012283F8422006
:102A0C007B68012283F843207B68012283F84420F1
:102A1C007B68012283F845207B68012283F83D20E6
:102A2C00002318460837BD4680BD000080B485B031
:102A3C0000AF78607B6893F83D30DBB2012B01D09E
:102A4C00012335E07B68022283F83D207B681B68FC
:102A5C00DA687B681B6842F00102DA607B681B68ED
:102A6C00164A934209D07B681B68B3F1804F04D09F
:102A7C007B681B68124A934211D17B681B689B6868
:102A8C0003F00703FB60FB68062B10D07B681B6808
:102A9C001A687B681B6842F001021A6007E07B68C9
:102AAC001B681A687B681B6842F001021A600023DD
:102ABC0018461437BD4680BC704700BF002C01403F
:102ACC000004004080B584B000AF78607B681B6860
:102ADC00DB68FB607B681B681B69BB60BB6803F031
:102AEC000203002B20D0FB6803F00203002B1BD049
:102AFC007B681B686FF002021A617B6801221A77EF
:102B0C007B681B689B6903F00303002B03D0786878
:102B1C0000F098F905E0786800F08BF9786800F01F
:102B2C009AF97B6800221A77BB6803F00403002B28
:102B3C0020D0FB6803F00403002B1BD07B681B68C0
:102B4C006FF004021A617B6802221A777B681B689B
:102B5C009B6903F44073002B03D0786800F072F982
:102B6C0005E0786800F065F9786800F074F97B6826
:102B7C0000221A77BB6803F00803002B20D0FB68F7
:102B8C0003F00803002B1BD07B681B686FF0080256
:102B9C001A617B6804221A777B681B68DB6903F077
:102BAC000303002B03D0786800F04CF905E078683B
:102BBC0000F03FF9786800F04EF97B6800221A7734
:102BCC00BB6803F01003002B20D0FB6803F010034C
:102BDC00002B1BD07B681B686FF010021A617B689E
:102BEC0008221A777B681B68DB6903F44073002B9F
:102BFC0003D0786800F026F905E0786800F019F940
:102C0C00786800F028F97B6800221A77BB6803F01B
:102C1C000103002B0CD0FB6803F00103002B07D041
:102C2C007B681B686FF001021A617868FEF766FD1D
:102C3C00BB6803F08003002B0CD0FB6803F080030F
:102C4C00002B07D07B681B686FF080021A617868D4
:102C5C0000F06FFABB6803F04003002B0CD0FB684C
:102C6C0003F04003002B07D07B681B686FF0400219
:102C7C001A61786800F0F8F8BB6803F02003002BA9
:102C8C000CD0FB6803F02003002B07D07B681B687B
:102C9C006FF020021A61786800F042FA00BF10371A
:102CAC00BD4680BD80B584B000AF7860396000232C
:102CBC00FB737B6893F83C30012B01D10223B4E009
:102CCC007B68012283F83C207B68022283F83D203C
:102CDC007B681B689B68BB60BB6823F07703BB6099
:102CEC00BB6823F47F43BB607B681B68BA689A603F
:102CFC003B681B68B3F5005F3ED0B3F5005F00F294
:102D0C008780B3F5805F00F08680B3F5805F7FD855
:102D1C00702B1AD0702B7BD8602B50D0602B77D8AF
:102D2C00502B3CD0502B73D8402B58D0402B6FD805
:102D3C00302B64D0302B6BD8202B60D0202B67D855
:102D4C00002B5CD0102B5AD062E07B6818683B6873
:102D5C0099683B685A683B68DB6800F06AF97B68E5
:102D6C001B689B68BB60BB6843F07703BB607B68E8
:102D7C001B68BA689A604FE07B6818683B68996872
:102D8C003B685A683B68DB6800F053F97B681B684A
:102D9C009A687B681B6842F480429A603CE07B68CE
:102DAC0018683B6859683B68DB681A4600F0CAF83B
:102DBC007B681B685021184600F021F92CE07B68D9
:102DCC0018683B6859683B68DB681A4600F0E8F8FD
:102DDC007B681B686021184600F011F91CE07B68C9
:102DEC0018683B6859683B68DB681A4600F0AAF81B
:102DFC007B681B684021184600F001F90CE07B68E9
:102E0C001A683B681B681946104600F0F8F803E096
:102E1C000123FB7300E000BF7B68012283F83D2097
:102E2C007B68002283F83C20FB7B18461037BD469C
:102E3C0080BD80B483B000AF786000BF0C37BD4656
:102E4C0080BC704780B483B000AF786000BF0C3793
:102E5C00BD4680BC704780B483B000AF786000BFC3
:102E6C000C37BD4680BC704780B483B000AF78602F
:102E7C0000BF0C37BD4680BC7047000080B485B0E5
:102E8C0000AF786039607B681B68FB607B682B4AFD
:102E9C00934207D07B68B3F1804F03D07B68284AFC
:102EAC00934208D1FB6823F07003FB603B685B68BE
:102EBC00FA681343FB607B68204A934207D07B6817
:102ECC00B3F1804F03D07B681D4A934208D1FB6855
:102EDC0023F44073FB603B68DB68FA681343FB60C8
:102EEC00FB6823F080023B685B691343FB607B68E3
:102EFC00FA681A603B689A687B68DA623B681A6801
:102F0C007B689A627B680D4A934203D13B681A69CD
:102F1C007B681A637B6801225A617B681B6903F02A
:102F2C000103002B05D07B681B6923F001027B6831
:102F3C001A6100BF1437BD4680BC7047002C01409D
:102F4C000004004080B487B000AFF860B9607A60CC
:102F5C00FB681B6A7B61FB681B6A23F00102FB6840
:102F6C001A62FB689B693B613B6923F0F0033B6190
:102F7C007B681B013A6913433B617B6923F00A03AD
:102F8C007B617A69BB6813437B61FB683A699A6120
:102F9C00FB687A691A6200BF1C37BD4680BC70475B
:102FAC0080B487B000AFF860B9607A60FB681B6AC8
:102FBC007B61FB681B6A23F01002FB681A62FB68DA
:102FCC009B693B613B6923F470433B617B681B034A
:102FDC003A6913433B617B6923F0A0037B61BB68B7
:102FEC001B017A6913437B61FB683A699A61FB6840
:102FFC007A691A6200BF1C37BD4680BC704780B42A
:10300C0085B000AF786039607B689B68FB60FB68BB
:10301C0023F07003FB603A68FB68134343F007032B
:10302C00FB607B68FA689A6000BF1437BD4680BCB1
:10303C00704780B487B000AFF860B9607A603B60CD
:10304C00FB689B687B617B6923F47F437B613B68F6
:10305C001A027B681A43BB6813437A6913437B617A
:10306C00FB687A699A6000BF1C37BD4680BC70470C
:10307C0080B485B000AF786039607B6893F83C30E1
:10308C00012B01D1022341E07B68012283F83C2013
:10309C007B68022283F83D207B681B685B68FB60C1
:1030AC007B681B689B68BB60FB6823F07003FB604C
:1030BC003B681B68FA681343FB607B681B68FA6803
:1030CC005A607B681B68144A934209D07B681B6862
:1030DC00B3F1804F04D07B681B68104A93420CD12B
:1030EC00BB6823F08003BB603B685B68BA68134322
:1030FC00BB607B681B68BA689A607B68012283F8A6
:10310C003D207B68002283F83C20002318461437AE
:10311C00BD4680BC704700BF002C0140000400403D
:10312C0080B483B000AF786000BF0C37BD4680BC64
:10313C00704780B483B000AF786000BF0C37BD46D9
:10314C0080BC704770B500260C4D0D4C641BA41050
:10315C00A64209D100F022F800260A4D0A4C641B45
:10316C00A410A64205D170BD55F8043B9847013612
:10317C00EEE755F8043B98470136F2E7E4310008D6
:10318C00E4310008E4310008E83100080346024449
:10319C00934200D1704703F8011BF9E7F8B500BF63
:1031AC00F8BC08BC9E467047F8B500BFF8BC08BC1C
:0431BC009E46704774
:1031C00000000000000000000102030406070809D7
:1031D00002030405060708090A0B0C0D0E0F101058
:0431E00001020000E8
:0431E40031010008AD
:0431E8000D010008CD
:1031EC0001000000010000000100000001000000CF
:1031FC0001000000010000000100000001000000BF
:10320C0001000000010000000100000001000000AE
:10321C00C8000000C8000000C80000000500000045
:10322C000200000003000000050000000200000086
:10323C00030000000100000000127A0010000000E2
:04324C00010000007D
:0400000508001B31A3
:00000001FF
